:020000040000fa
:10000000f0ff03205d630100cf2f0100a33e01003c
:100010001f4c0100bf4e01000b5501000000000005
:10002000000000000000000000000000d72a0100ce
:10003000cb43010000000000d72a0100d72a0100ad
:10004000d72a0100d72a0100d72a0100d72a0100a8
:10005000d72a0100d72a0100d72a0100d72a010098
:10006000d72a0100d72a0100d72a0100d72a010088
:10007000d72a0100d72a0100d72a0100d72a010078
:10008000d72a0100d72a0100d72a0100d72a010068
:10009000d72a0100d72a0100d72a0100d72a010058
:1000a000d72a0100d72a0100d72a0100d72a010048
:1000b000d72a0100d72a0100d72a0100d72a010038
:1000c000d72a0100d72a0100d72a0100d72a010028
:1000d000d72a0100d72a0100d72a0100d72a010018
:1000e000d72a0100d72a010000000000000000000c
:1000f00000000000d72a0100d72a0100d72a0100fa
:10010000d72a0100d72a010059cd000059cd00009f
:1001100059cd000059cd0000d72a0100d72a01008f
:10012000d72a0100d72a0100d72a0100d72a0100c7
:10013000d72a0100d72a0100d72a0100d72a0100b7
:10014000d72a0100d72a0100d72a0100d72a0100a7
:10015000d72a0100d72a0100d72a0100d72a010097
:10016000d72a0100d72a0100d72a0100d72a010087
:10017000d72a0100d72a0100d72a0100d72a010077
:10018000d72a0100d72a0100d72a0100d72a010067
:10019000f1c50100d72a0100d72a0100d72a0100a2
:1001a000d72a0100d72a0100d72a0100d72a010047
:1001b000d72a0100d72a0100d72a0100d72a010037
:1001c000d72a0100d72a0100d72a0100d72a010027
:1001d000d72a0100d72a0100d72a0100d72a010017
:1001e000d72a0100d72a0100d72a0100d5c701006c
:1001f000d72a0100d72a0100d72a0100d72a0100f7
:10020000d72a0100d72a0100d72a0100d72a0100e6
:10021000d72a0100d72a0100d72a0100d72a0100d6
:10022000d72a0100d72a0100d72a0100d72a0100c6
:10023000d72a0100d72a0100d72a0100d72a0100b6
:10024000d72a0100d72a0100d72a0100d72a0100a6
:10025000d72a0100d72a0100d72a0100d72a010096
:040260000133010065
:020000040000fa
:10026400f8b500bff8bc08bc9e46704739aa010027
:10027400f8b500bff8bc08bc9e46704715aa01003b
:020000040000fa
:0802840054a20000010000007b
:020000040000fa
:10028c002de9f04fadf2445d0c461a2801f2ae8414
:10029c00dfe810f01b00350071005c01bf00320379
:1002ac008202c1022d03390ae70a2f0b4203bb0b52
:1002bc00410c90078202d1005701b00cb00cb00c6d
:1002cc004d0ca20cfc02fc024d0c91f8423043f098
:1002dc0001036ff3410381f842300123cb73496969
:1002ec0039b10a2204f143001ef066fb012501f02e
:1002fc0082bc002384f84330012501f07cbc91f8ca
:10030c00423013f0010f04d10623cb73012501f009
:10031c0072bcbf4b1b684bb34d69be4b1b68cb1af1
:10032c001b11bd4a02fb03f3adf870314ff6ff739e
:10033c00adf87231b1f90400adf874015ea918f092
:10034c0075ffb34b1e68b54b1b685caa294604f1bc
:10035c004300b047054648b194f8423043f00203dd
:10036c0084f842300223e37301f045bc0623e373a7
:10037c00012501f040bc8b7b012b23d05ab222b15a
:10038c00082b2dd0002501f036bcb1f90600b0f1d8
:10039c00ff3f10d0c96b09b114f0c2ff206843694c
:1003ac00616b9847b4f9060014f0dcfa0123a373cf
:1003bc00002501f020bc0323cb7308238b7300258d
:1003cc0001f019bcb1f9060018f080fe05460028b2
:1003dc0041f016840323e3730823a37301f00bbcd1
:1003ec0000220121b4f9040010f098fa10b900258c
:1003fc0001f001bcb4f9040018f068fe05460028b1
:10040c0001f0f983b4f9040013f0c0fb002501f0ee
:10041c00f2bb486a1af063f90546c3b22381a06a9d
:10042c001af05df9c0b240ea052020810c23e37379
:10043c00012501f0e0bbdcad40f211120021284691
:10044c001ef08af8764b0fcb85e80f0028461ef07d
:10045c008bf8002281b2b4f9040010f05ffa30b9c5
:10046c001723e37302232373012501f0c4bbdca81b
:10047c001ef07af882b2dca9b4f9040015f0a8fadf
:10048c00b4f9040018f0fefe40f211120021dca8b1
:10049c001ef062f8634b93e80300dc90adf8741324
:1004ac00090c8df87613dca81ef05ef8002281b2e0
:1004bc00b4f9040010f032fa30b91723e3730223b5
:1004cc002373012501f097bbdca81ef04df882b216
:1004dc00dca9b4f9040015f07bfab4f9040018f0a7
:1004ec00d1fe40f211120021dca81ef035f84e4a64
:1004fc00dcab07ca03c31a80dca81ef035f8002257
:10050c0081b2b4f9040010f009fa30b91723e3737f
:10051c0002232373012501f06ebbdca81ef024f826
:10052c0082b2dca9b4f9040015f052fab4f9040053
:10053c0018f0a8fe1723e37302232373012501f09f
:10054c005abb1423cb73012501f055bb8b7b012bbc
:10055c0034d05ab2b2b1022b40f018814e6bb4f9c0
:10056c00060018f0b3fd054600285fd0226b002a68
:10057c005cd0b6f1ff3f42d02068056a00233146bb
:10058c00a84758e091f8423013f0020f09d013f04d
:10059c00040f0bd00e23e3730123a373002501f08a
:1005ac002abb0623cb73012501f025bb084612f0ac
:1005bc006ffd0028eed1012501f01dbbb1f906003d
:1005cc0018f084fd0546002801f01583236b002be1
:1005dc0040f0df8020680368012261699847064675
:1005ec00b0f1ff3f03d060630223a373b7e70d2381
:1005fc00e37320461cf090f8002501f0fcba13239d
:10060c00e3730023236320461cf086f801f0f3ba51
:10061c008c290020942900203dcff33c8829002010
:10062c004c5b00005c5b0000645b0000b4f90600ee
:10063c0018f04cfd88b394f8423013f0080f1cbf2f
:10064c0043f0100384f842304ff400780027b4f9db
:10065c00060014f0ddf90546002835d0424639462f
:10066c005ca81df079ffb5f5007f28bf4ff400752d
:10067c00aab25ca9b4f9060010f0d2fd034600281a
:10068c0056d02068056b5caa3146a847b0f1ff3ff5
:10069c0065d01cf0c1fbe062d9e7206843693146a4
:1006ac0098474ff0ff336363002222631023e373f8
:1006bc0094f8423062f3820384f8423020461cf0f6
:1006cc002bf8012501f097ba94f8423013f0100f73
:1006dc000cd12068436a31469847b0f1ff3f07bf01
:1006ec00002525632063002501f085ba94f842307b
:1006fc006ff3041384f84230606b17f02df84ff051
:10070c00ff336363002525630923e37394f84230b8
:10071c0065f3820384f8423020461bf0fdff94f809
:10072c00423065f3c30384f84230012501f063ba0b
:10073c0020684369314698474ff0ff3363630022ca
:10074c0022630923e37394f8423062f3820384f842
:10075c00423020461bf0e0ff012501f04cba206826
:10076c004369314698474ff0ff336363002222639d
:10077c000923e37394f8423062f3820384f8423025
:10078c0020461bf0c9ff012501f035ba002501f008
:10079c0032ba002501f02fba4ff4807200215ca808
:1007ac001df0dafe2068836bff225ca9984720b10c
:1007bc000d23e373012501f01eba40f21112002142
:1007cc00dca81df0c9fe5caab949dca81df028fb09
:1007dc00dca81df0c9fe002281b2b4f9040010f0af
:1007ec009df820b91723e37302232373e2e7dca8f7
:1007fc001df0bafe82b2dca9b4f9040015f0e8f8d9
:10080c00b4f9040018f03efd1723e373022323739d
:10081c00012501f0f0b90868436b4969984740b964
:10082c002068836bff225ca9984738b10d23e373d2
:10083c0001e00d23e373012501f0ddb95caa9d49ac
:10084c00dca81df0edfadca81df08efe002281b2b2
:10085c00b4f9040010f062f820b91723e3730223f3
:10086c002373e8e7dca81df07ffe82b2dca9b4f9a3
:10087c00040015f0adf8b4f9040018f003fd1723cb
:10088c00e37302232373012501f0b5b908680369ea
:10089c004969984740b220b10d23e373012501f05b
:1008ac00aab9626984495ca81df0bafa5ca81df06b
:1008bc005bfe002281b2b4f9040010f02ff820b9cd
:1008cc001723e37302232373e8e75ca81df04cfea7
:1008dc0082b25ca9b4f9040015f07af8b4f90400fa
:1008ec0018f0d0fc1723e37302232373d6e70c23f1
:1008fc00cb73012501f07fb90c23cb73b1f9063012
:10090c00b3f1ff3f02d1012501f075b908461bf088
:10091c0003ff012501f06fb94ff4907200215ca820
:10092c001df01afe0bab654a07ca03c31a80a37be2
:10093c00082b00f23384dfe813f009002a0031049d
:10094c007e00c900d001e601e702210494f8423090
:10095c0013f0040f0bd094f8423013f0020f0ed0aa
:10096c000823e3730123a373002501f044b9204647
:10097c0012f08efb0028eed1012501f03cb90623c4
:10098c00e37320461bf0c8fe012501f034b9b4f91d
:10099c00060018f09bfb0546002801f02c81032370
:1009ac00a37367693b7823b90523a373002501f072
:1009bc0022b9dff814810026b2464ff0ff0b5ffa24
:1009cc0086f9414638461df095fb90b13c4b83f8b7
:1009dc0000a03c4b83f800b0013608f10508032e4b
:1009ec00edd138461df0c0fdff281ad8002501f0c6
:1009fc0002b9334b01221a70324b83f80090a06974
:100a0c001df0b2fdff2802d8002501f0f4b80d232b
:100a1c00e37320461bf080fe294b00221a7001f074
:100a2c00eab80d23e37320461bf076fe244b00221c
:100a3c001a7001f0e0b8224b1d78e5b120684368cc
:100a4c005caaa1699847b0f1ff3f0ad09df87831b4
:100a5c0013f0100f0cbf04230523a373002501f022
:100a6c00cab80d23e37320461bf056fe144b00222c
:100a7c001a7001f0c0b8206843685caa6169984795
:100a8c00b0f1ff3f09d09df8783113f0100f0cbf77
:100a9c0004230523a37301f0aeb80d23e3732046a2
:100aac001bf03afe064b00221a70012501f0a3b888
:100abc00705b0000845b0000985b0000b85b00007a
:100acc000a2a00200b2a0020c8280020b34e3046ea
:100adc001df04afd012281b2b4f906000ff01eff91
:100aec0005464ff49772002130461df035fdac4b96
:100afc001b78ff2b18d0236b002b55d0a94b1e88cd
:100b0c00b54240d2a54f38461df02efd811b2a461a
:100b1c003944b4f9060014f05bffa24a13885d1b3c
:100b2c001580002501f067b8236b002be6d16269b4
:100b3c009d4930461df074f930461df015fd06b286
:100b4c00ae4219dd002e12dd944fa846b4f9069082
:100b5c0038461df009fd85422cbf82b2424639460b
:100b6c00484614f035ff761b36b2002eeedc082317
:100b7c00a373002501f03fb882b28849b4f906008e
:100b8c0014f026fff3e7854d28461df0edfc811b84
:100b9c0032462944b4f9060014f01aff0025814ba3
:100bac001d80256301f027b87c4e4ff497727f4966
:100bbc0030461df001ff30461df0d6fc854218d89a
:100bcc0001232363b4f9066074481df0cdfc854203
:100bdc002cbf82b22a46714c2146304614f0f8fee6
:100bec0020461df0c1fc401b6e4b1880002501f007
:100bfc0002b8374682b23146b4f9060014f0e8fe6a
:100c0c000026684b1e802663159616961796189626
:100c1c0019961a968df86c600f9610961196bdf871
:100c2c007431bdf87611c3f34312dff88c814800a0
:100c3c0000f03e000390c1f345100290c90a0191e7
:100c4c00590a01f2bc71009103f01f03013a08f13b
:100c5c00a40115a81df0e4f85c9a08f1c4010fa8d2
:100c6c001df0def84ff49772314638461df074fcd7
:100c7c00a36900930fab15aa08f1c80138461df003
:100c8c00cff838461df070fc854218d80123236339
:100c9c00b4f9066041481df067fc85422cbf82b256
:100cac002a463e4c2146304614f092fe20461df05a
:100cbc005bfc401b3b4b1880002500f09cbf82b2b4
:100ccc003649b4f9060014f083fe0025354b1d801f
:100cdc0025630823a37300f08ebf4ff49772002195
:100cec002e481df039fc2e4b1b78ff2b2ed0206884
:100cfc00c368a1699847b0f1ff3f33d0606300230c
:100d0c0023630623a37325481df02efc012281b218
:100d1c00b4f906000ff002fe0546236b002b4dd0f4
:100d2c00204b1e88b04228d21c4f38461df01cfcac
:100d3c00811b2a463944b4f9060014f049fe194abd
:100d4c0013885d1b1580002500f055bf61690b7879
:100d5c0023b92068c36816499847cce72068c36854
:100d6c009847c8e70d23e37320461bf0d5fc114bc5
:100d7c0000221a70012500f03ebf084d28461df0d8
:100d8c00f3fb811b32462944b4f9060014f020fe13
:100d9c000025044b1d80256300f02dbf141d002081
:100dac000b2a0020fe290020c45b0000cc5b000055
:100dbc00285c00000a2a00204c5b0000894e4ff48e
:100dcc009772894930461df0f7fd30461df0ccfb7b
:100ddc00854218d801232363b4f9066081481df0bd
:100dec00c3fb85422cbf82b22a467e4c214630463c
:100dfc0014f0eefd20461df0b7fb401b7b4b18801a
:100e0c00002500f0f8be82b23146b4f9060014f0a9
:100e1c00dffd0023754a138023631caba293ff23d1
:100e2c00a393d4f8349072481cf000fd05460028ba
:100e3c005ed0dff8c4b1dff8bca10027cdf8867115
:100e4c00cdf88a71cdf88e718df89271ff223946ea
:100e5c001ca81df081fb5cab2022594648460ef0c5
:100e6c00c5fbb0f1ff3f46d04ff49472daf8001096
:100e7c005f481cf027fe064600285ed09df87831ae
:100e8c000373bdf874310381bdf87631438100f1f1
:100e9c001a084ff48072394640461df05dfb0df583
:100eac00c37140461df082fd5c9b7360a39bc6f82a
:100ebc002031a2981df058fbc6f81c7183b2002b90
:100ecc00bcd01f46daf800309b687a1c0121daf896
:100edc0000009847002841d0c6f81c013a46a29958
:100eec001df08df9d6f81c01384400234370a4e79b
:100efc00012500f080be20688369494698474ff071
:100f0c00ff3363630723a373394b1f6835481df008
:100f1c002bfb012281b2b4f906000ff0fffc064650
:100f2c00002f57d0002800f03c81dff8c0b0dff86c
:100f3c00cc9009f1a4030793d8e020688369494653
:100f4c0098474ff0ff3363630d23e37320461bf088
:100f5c00e3fb27481af064ff00f04dbe206883695c
:100f6c00494698474ff0ff3363630d23e3732046e4
:100f7c001bf0d2fb1e4b9b68002b13dd1d4c1c4f32
:100f8c0008e038461af0f0f806462068c368314687
:100f9c0098473eb1d6f81c110029f2d02068c368de
:100fac009847eee712481af03bff00f024be0d4db7
:100fbc0028461df0d9faa0eb080132462944b4f9b1
:100fcc00060014f005fd094a13889e1b1680002f9d
:100fdc0040f0ea8006481af023ff0823a37300258b
:100fec0000f009be141d0020cc5b0000fe2900207f
:100ffc00582800209c2900202c5c00004c5b000031
:10100c000025159516951795189519951a958df81f
:10101c006c500f95109511954ff4977a52462946be
:10102c00ae481df099fa3a897b89590001f03e01ce
:10103c000391c3f345110291db0a0193530a03f2a6
:10104c00bc73009302f01f03c2f34312079915a857
:10105c001cf0e6fe7a6809f1c4010fa81cf0e0fe52
:10106c0097f80c80c8f30018524629469b481df08f
:10107c0073fad7f81c21002a63d00bab03eb88035f
:10108c0001920faa0092434415aa09f1e401934876
:10109c001cf0c6fe924b1868c368d7f81c11984711
:1010ac008e481df061fa85b2b54259d22a46b54236
:1010bc0028bf324692b28949b4f9060014f088fc74
:1010cc000023abf800302363761bb6b2854d28465f
:1010dc001af04af8824b1b68da68014618469047aa
:1010ec002f68002f3ff476af002e60d0236b002bbf
:1010fc0086d0bbf80080b0453ff659af774d2846f7
:10110c001df032faa0eb080142462944b4f906005e
:10111c0014f05efcbbf80030f61ab6b20023abf844
:10112c00003023636f4d28461af01ef86c4b1b6879
:10113c00da680146184690472f68002f7ff460af9d
:10114c0048e70bab03eb88031a3701970faa009201
:10115c00434415aa09f1e40160481cf061fe9fe7c5
:10116c000123236332465d49b4f9060014f030fcc8
:10117c00ad1b5d4b1d80002500f03dbd20461bf0d6
:10118c00cbfa1023e373594bff221a700023564af3
:10119c001380574a1370012500f02dbd002500f077
:1011ac002abd002500f027bd002500f024bd002538
:1011bc0000f021bd4ff4907200215ca81df0ccf919
:1011cc000fad4c4e0fce0fc596e8030045f8040b3f
:1011dc002980a37b082b00f28e82dfe813f0090034
:1011ec002a008c028c028c023700430036018502e7
:1011fc0094f8423013f0040f0bd094f8423013f0f3
:10120c00020f0ed00823e3730123a373002500f013
:10121c00f2bc204611f03cff0028eed1012500f075
:10122c00eabc0623e37320461bf076fa012500f096
:10123c00e2bcb4f9060017f049ff0546002800f09f
:10124c00da840523a373002500f0d5bc2068c3689d
:10125c0029499847b0f1ff3f27d0606300232363ef
:10126c000623a37325481df07ff9012281b2b4f93e
:10127c0006000ff053fb0546236b002b42d0204b8e
:10128c001e88b04219d21d4f38461df06df9811bd6
:10129c002a463944b4f9060014f09afb184a13880c
:1012ac005d1b1580002500f0a6bc0d23e3732046c2
:1012bc001bf032fa012500f09ebc104d28461df0a3
:1012cc0053f9811b32462944b4f9060014f080fb13
:1012dc0000250b4b1d80256300f08dbc141d0020d8
:1012ec009c29002058280020fe2900200b2a0020d1
:1012fc000a2a0020445c0000285c0000c81b002067
:10130c00fa290020864e4ff4a672864930461df00d
:10131c0053fb30461df028f9854218d8012323636e
:10132c00b4f906607e481df01ff985422cbf82b2cd
:10133c002a467b4c2146304614f04afb20461df0d1
:10134c0013f9401b784b1880002500f054bc002189
:10135c00754b198021631caeff252a4630461df0c3
:10136c00fbf8a296a395d4f8349070481cf05efa62
:10137c00054600285ed0dff8bcb1dff8b4a1002729
:10138c00cdf88671cdf88a71cdf88e718df8927189
:10139c00ff2239461ca81df0dff85cab3a465946d3
:1013ac0048460ef023f9b0f1ff3f45d04ff494724c
:1013bc00daf800105d481cf085fb064600285dd06d
:1013cc009df878310373bdf874310381bdf8763123
:1013dc00438100f11a084ff48072394640461df0e3
:1013ec00bbf80df5c37140461df0e0fa5c9b7360d1
:1013fc00a39bc6f82031a2981df0b6f8c6f81c7154
:10140c0083b2002bbcd01f46daf800309b687a1ce4
:10141c000121daf80000984700283fd0c6f81c01db
:10142c003a46a2991cf0ebfed6f81c013844002376
:10143c004370a4e70125dee3206883694946984799
:10144c004ff0ff3363630723a373384b1f68344893
:10145c001df08af8012281b2b4f906000ff05efa91
:10146c000646002f55d0002800f04781dff8b8a0c1
:10147c00dff8c49009f588730793e5e02068836969
:10148c00494698474ff0ff3363630d23e3732046bf
:10149c001bf042f925481af0c3fcace320688369c1
:1014ac00494698474ff0ff3363630d23e37320469f
:1014bc001bf032f91d4b9b68002b13dd1c4c1b4f92
:1014cc0008e0384619f050fe06462068c3683146dd
:1014dc0098473eb1d6f81c110029f2d02068c36899
:1014ec009847eee711481af09bfc84e30c4d284614
:1014fc001df03af8a0eb080132462944b4f9060075
:10150c0014f066fa084a13889e1b1680002f40f0d0
:10151c00f68006481af084fc0823a37300256ae3be
:10152c00c81b0020cc5b0000fa29002058280020a2
:10153c009c2900202c5c00004c5b000000251595bc
:10154c0016951795189519951a958df86c500b954d
:10155c000c950d958df83850089509950a954ff412
:10156c00a67b5a462946ae481cf0f6ff3b89c3f3ce
:10157c004312013a590a01f2bc71009103f01f03a6
:10158c00a84951f82220079915a81cf049fc7a8922
:10159c00c2f34513d20a09f590710ba81cf040fc5c
:1015ac007a6809f1c40108a81cf03afc97f80c8081
:1015bc00c8f300185a46294699481cf0cdffd7f8b5
:1015cc001c1100296cd009f594734fea880242442f
:1015dc0008eb4202049115a9039108a90291019309
:1015ec0000930fa90a4409f596718d481cf018fc5c
:1015fc008d4b1868c368d7f81c11984788481cf0a5
:10160c00b3ff85b2b54262d22a46b54228bf3246f4
:10161c0092b28349b4f9060014f0daf90023aaf85f
:10162c0000302363761bb6b2804d284619f09cfd22
:10163c007d4b1b68da680146184690472f68002fcf
:10164c003ff467af002e5cd0236b002b3ff476afda
:10165c00baf800804645fff449af714d28461cf09e
:10166c0083ffa0eb080142462944b4f9060014f0ac
:10167c00aff9baf80030f61ab6b20023aaf8003067
:10168c0023636a4d284619f06ffd674b1b68da68b7
:10169c000146184690472f68002f7ff44faf38e76c
:1016ac0009f594734fea8802424408eb42021a3758
:1016bc00049715a9039108a90291019300930fa90e
:1016cc000a4409f5967156481cf0aafb96e70123cb
:1016dc00236332465249b4f9060014f079f9ae1b73
:1016ec00534b1e80002586e220461bf015f8102374
:1016fc00e37301257fe200257de200257be20025d6
:10170c0079e2002577e20b6b5bb90868036800226d
:10171c00496998470146b0f1ff3f0bd020684369f7
:10172c009847a37b012b22d05ab23ab1032b2ad073
:10173c00002560e20d23e37301255ce294f842304e
:10174c0013f0020f08d013f0040f09d00e23e3732b
:10175c000123a37300254ee20623e37301254ae21d
:10176c00204611f095fc0028f0d1012543e2b4f994
:10177c00060017f0abfc0546002800f03c82032362
:10178c00a373002537e2226b002a3dd12068036841
:10179c00616998478046b0f1ff3f00f03382606387
:1017ac000023236301224ff40071b4f906000ff0fb
:1017bc00b5f80546d0b147462068c66a2b46b5f544
:1017cc00007f28bf4ff400735caa3946b047064629
:1017dc0000282fd082b25ca9b4f9060014f0f8f8f6
:1017ec00ad1b1bf019fbe062002de5d12068436aac
:1017fc0041469847b0f1ff3f06bf002323632063a7
:10180c00236b0bb30025f6e1616b8846b1f1ff3f0a
:10181c0000f0f8812068056a0023a847c2e700bfe2
:10182c00c81b002000c101009c2900205828002062
:10183c00fa29002020684369394698474ff0ff3356
:10184c00636300232363dbe720461af065ff09235b
:10185c00e37394f842306ff3820384f8423001252d
:10186c00c9e1086803680022496998470646b0f147
:10187c00ff3f21d02068c3693146984700258df879
:10188c0084540246c2490df284401cf0c9fa0df290
:10189c0084401cf069fe2a4681b2b4f904000ff0b2
:1018ac003df868b91723e373022323732068436957
:1018bc003146984701259ee10d23e37301259ae1fa
:1018cc000df284401cf050fe82b20df28441b4f94a
:1018dc00040014f07df8b4f9040017f0d3fc1723be
:1018ec00e37302232373206843693146984701252b
:1018fc0081e10020019000900346012206210af0ac
:10190c0039ffe080b0f1ff3f40d00023a14a40f204
:10191c00046113f043fee06300283bd00df5a16198
:10192c00b4f9040017f082fc0df59a61b4f90600c5
:10193c0017f07cfc00258df89054bdf8f634dab223
:10194c0003921b0a02939df81f3501939df81e35d7
:10195c0000939df81d359df81c258f490df592605f
:10196c001cf05efabdf8f63423810df592601cf084
:10197c00fbfd2a4681b2b4f904000ef0cfff88b902
:10198c001723e37302232373012534e10a23e37342
:10199c00012530e1b4f9060012f0e4ff0a23e373e9
:1019ac00012528e10df592601cf0defd82b20df5eb
:1019bc009261b4f9040014f00bf8b4f9040017f0b8
:1019cc0061fc1723e37302232373744bda8852b937
:1019dc00724b1a8982b994f8423043f0040384f8ac
:1019ec004230012507e10321b4f9060017f042fb50
:1019fc0005460028ecd1fee00221b4f9060017f0f0
:101a0c0039fb05460028e6d1f5e091f84130012b71
:101a1c0003d91223cb730125ede00df5a161b4f9c7
:101a2c00040017f003fc00200190009003469df881
:101a3c00082506210af09efee080b0f1ff3f2bd076
:101a4c000023544a40f2046113f0a8fde06338b35c
:101a5c000df59a61b4f9060017f0e8fb00258df836
:101a6c009054bdf8f6244e490df592601cf0d8f94f
:101a7c00bdf8f63423810df592601cf075fd2a46f5
:101a8c0081b2b4f904000ef049ff88b91723e3734f
:101a9c00022323730125aee00a23e3730125aae098
:101aac00b4f9060012f05eff0a23e3730125a2e0ed
:101abc000df592601cf058fd82b20df59261b4f9ef
:101acc00040013f085ffb4f9040017f0dbfb1723b7
:101adc00e37302232373314bda8852b92f4b1a89e3
:101aec0082b994f8423043f0040384f84230012563
:101afc0081e00321b4f9060017f0bcfa0546002872
:101b0c00ecd178e00221b4f9060017f0b3fa0546df
:101b1c000028e6d16fe0486918f0e1fd6081e069ca
:101b2c0018f0ddfd20810c23e373012563e091f8af
:101b3c00423013f0020f03d10623cb7301255ae078
:101b4c000868836849699847b0f1ff3f04d0d8b959
:101b5c001523e37301254ee01cf0fefe05468022a2
:101b6c0000215ca81cf0f8fc072d1bd0102d1fd0f9
:101b7c005ca81cf0f9fc002281b2b4f904000ef050
:101b8c00cdfed8b9022323730d23e373012532e074
:101b9c00985c000029900100a45c0000fc28002047
:101bac00d45c000062691f495ca81cf039f9dfe7be
:101bbc0062691d495ca81cf033f9d9e75ca81cf0dc
:101bcc00d3fc82b25ca9b4f9040013f001ffb4f9a0
:101bdc00040017f057fbd7e791f8423013f0020fcf
:101bec0014bf0c230623cb73012504e00523cb7310
:101bfc00012500e0012528460df2445dbde8f08f7b
:101c0c000025f8e71023e3730025256320461af01e
:101c1c0083fd94f8423065f3820384f84230012549
:0c1c2c00e9e700bf045d0000285d000037
:020000040000fa
:101c38002de9f04385b00446002303934ff444751f
:101c480005fb00f5ba4e2e4496f80c33012b1ed036
:101c5800b74a4ff4447303fb0423d3f8ac7293f8e8
:101c6800bf32102b01f21f83dfe813f0230054006a
:101c780066009b00d9083f0a790ab80ae20a0a0beb
:101c88004c0b800bab0bdb0bfa0b3c0c150000224a
:101c980086f80c23dce7d6f8ac52002d01f07684e8
:101ca800a34b4ff4447707fb04374ff0010801f0ca
:101cb8005bbc9f4a4ff4447303fb04239b789bb996
:101cc8004ff4447303fb04239b689b6b98470028dd
:101cd80001f0e982964a4ff4447303fb042301227e
:101ce80083f8bf2201f0dfba914e05f110013144ab
:101cf800204616f053fd4ff4447505fb0465ab68a8
:101d08005b6898478b4bc5f89432032385f8bf323c
:101d180001f0c9ba88492944fa2017f0ffff0028c2
:101d280041f0c182824a4ff4447303fb0423022228
:101d380083f8bf2201f0b7ba7d4a4ff4447303fb1e
:101d48000423d3f8c8021cf09bf9002801f0ab82e9
:101d5800774a4ff4447303fb04239b689b6b9847b3
:101d680048b9734a4ff4447303fb0423002283f8f1
:101d7800bf2201f098ba6e4e05f110013144204699
:101d880016f00cfd4ff4447505fb0465ab685b6801
:101d98009847684bc5f89432032385f8bf3201f0a1
:101da80082ba00230293624a4ff4447303fb04236c
:101db80093f8c032212b00f2bf87dfe813f022002e
:101dc8005d007d009300bf00e9005e0187017e028f
:101dd800be0257031205350564050b0425045a0491
:101de80081049e04cd048905da0523064106980678
:101df800ff06440767079407b007b007f5016902b3
:101e080011034b4a4ff4447303fb0423d3f8942281
:101e1800484b9a4215d0464a4ff4447303fb0423b7
:101e28009b689b6843489847002800f02086404af2
:101e38004ff4447303fb04233e4ac3f8942200f092
:101e480016be3b4a4ff4447303fb04239b78012bd3
:101e580009d0374a4ff4447303fb0423032283f861
:101e6800c02200f004be03f20f3303fb0423012257
:101e780083f8c02200f0fbbd2d4905f532724ff4fe
:101e8800447303fb04131144586817f047ff48b91b
:101e9800274a4ff4447303fb0423022283f8c02229
:101ea80000f0e5bd224a4ff4447303fb04231e22cd
:101eb80083f8c02200f0dbbd1d4a4ff4447303fbd6
:101ec8000423d3f8c8021cf0dbf8002800f0cf8503
:101ed800174a4ff4447303fb0423032283f8c022f8
:101ee80000f0c5bd124f05f2c3233b440093002305
:101ef8001a46194630460ef0c3fa4ff4447303fbf2
:101f0800047393f8c232032b40f0b18507f53271a0
:101f18002944022017f002ff002840f0a8854ff45a
:101f2800447303fb0473042283f8c02200f09fbdae
:101f380000080020801a0600c80a0020d24a4ff480
:101f4800447303fb0423d3f8c8021cf099f8002853
:101f580000f08d85cc4a4ff4447303fb042393f8b7
:101f6800d03243b903f5447303fb0423052283f8f5
:101f7800c02200f07cbdc44a4ff4447303fb042321
:101f88001f2283f8c0221422a3f8dc2200f06fbdc0
:101f9800bd4f05f2c3233b44009308234ff4d57289
:101fa800194630460ef06cfa4ff4447303fb047381
:101fb80093f8c232032b40f05a8503f20d3303fb2a
:101fc8000473062183f8c012072183f8c112002187
:101fd80083f8851205f5337139444ff4fa6017f028
:101fe8009dfe012820d0a84a4ff4447303fb042324
:101ff80093f8bd325bbb03f5447303fb04239b6872
:102008001b6a02a900209847029bc3f30803b3f593
:10201800d57f12d09c4a4ff4447303fb04231e223d
:1020280083f8c02200f023bd4ff4447303fb04730c
:102038001e2283f8c02200f01abd934a03f5b37339
:1020480003fb0423012283f88c2200f010bd022b2d
:1020580009d08d4a4ff4447303fb04231e2283f8ee
:10206800c02200f004bd884a03f20e3303fb0423a8
:10207800002283f88c2200f0fabc834b4ff444779b
:1020880007fb0437b7f8822205f2c3210b440093fb
:1020980001231204372130460ef0f2f997f8c232c4
:1020a800032b40f0e48497f8bd322bb997f8c1228e
:1020b80087f8c02200f0dbbc734a4ff4447303fb7b
:1020c80004231e2283f8c02200f0d1bc6e4b4ff4cb
:1020d800447707fb043797f88c1297f88522120487
:1020e80005f2c32003440093042342ea81722921a4
:1020f80030460ef0c5f997f8c232032b40f0b7848a
:10210800d7f8cc021bf0bcff20b11e2287f8c022f2
:1021180000f0adbc5c4a4ff4447303fb042393f80e
:10212800bd32bbbb03f5447303fb04239b681b6ae6
:1021380002a900209847029b13f4701f09d1524a44
:102148004ff4447303fb04231e2283f8c02200f0db
:102158008ebc002b0cdb4c4a4ff4447303fb042366
:102168003c2283f88522062283f8c02200f07fbc37
:10217800454a4ff4447606fb0426c3f3807386f879
:102188008632d6f8cc0219f0e1f8082386f8c03276
:1021980000f06dbc3c4a4ff4447303fb04231e2239
:1021a80083f8c02200f063bc374f05f2c3233b44d9
:1021b80000930423354a012130460ef061f94ff4ab
:1021c800447303fb047393f8c232032b40f04f842b
:1021d80003f20d3303fb047393f8bd32002b49d18e
:1021e80003f5447303fb04739b681b6a02a9002070
:1021f8009847029b002b11db234a4ff4447303fbdf
:102208000423b3f8dc32dbb91f4a4ff4447303fbf1
:1022180004231e2283f8c02200f029bc4ff4447224
:1022280002fb047203f0c043b3f1804f14bf0023d4
:10223800012382f88632082382f8c03200f017bce6
:1022480011464ff4447202fb0412013ba2f8dc323f
:1022580005f532731944322017f060fd002840f06c
:102268000684094a4ff4447303fb0423202283f8ad
:10227800c022fce3044a4ff4447303fb04231e22e8
:1022880083f8c022f3e300bf0008002000003840b4
:10229800cc4a4ff4447303fb0423d3f8c8021bf061
:1022a800effe002800f0e383c64a4ff4447303fbb3
:1022b80004231f2283f8c022d9e3c24f05f2c323a7
:1022c8003b44009303230022022130460ef0d8f845
:1022d8004ff4447303fb047393f8c232032b40f0aa
:1022e800c68303f20d3303fb047393f8bd32dbb9e5
:1022f800394605f110034ff4447606fb0476b268bc
:10230800126a19440420904796f8d0321bb9092262
:1023180086f8c022abe3ab4a4ff4447303fb0423b3
:10232800212283f8c022a2e3a64a4ff4447303fb98
:1023380004231e2283f8c02299e3a24f05f2c32387
:102348003b44009307230022032130460ef098f8ff
:102358004ff4447303fb047393f8c232032b40f029
:10236800868303f20d3303fb047393f8bd3273bb0a
:1023780003f5447303fb04739b681b6a02a90020de
:102388009847029b13f4604f07d04ff4447303fb44
:1023980004731e2283f8c02269e31b0c89494ff499
:1023a800447202fb0412a2f882323bb903f544736b
:1023b80003fb0413092283f8c02258e3814a4ff42f
:1023c800447303fb04230a2283f8c0224fe37d4aa7
:1023d8004ff4447303fb04231e2283f8c02246e310
:1023e800784f05f2c3233b44009301234ff4003296
:1023f800032130460ef044f84ff4447303fb047392
:1024080093f8c232032b40f0328303f20d3303fbff
:10241800047393f8bd3203bb03f5447303fb0473e1
:102428009b681b6a02a900209847029b13f4590f66
:1024380007d04ff4447303fb04731e2283f8c022b1
:1024480015e3604a4ff4447303fb04230222a3f804
:1024580082220a2283f8c02209e35a4a4ff44473bd
:1024680003fb04231e2283f8c02200e3554b4ff4dc
:10247800447707fb0437b7f8822205f2c3210b44df
:10248800009303231204092130460df0f9ff97f851
:10249800c232032b40f0eb824a4a97f8bd32002b38
:1024a80040f0868005f1200616444ff4447707fb78
:1024b8000427bb681b6a31460420984797f8d03236
:1024c800002b3ad1404ac7f89822b37b9b09012bcd
:1024d80025d0337a9b0203f440607279520002f0ef
:1024e8000602384b4ff4447101fb0431f779b37994
:1024f8009b0943ea870303430133307942ead01248
:1025080002329340727a02f00f02a2f1090001220e
:10251800824092b202fb03f3c1f888323fe0f379bc
:102528001b0403f47c12b079737943ea0023134344
:1025380001339b02c7f8883231e0f37a214a4ff41d
:10254800447101fb0421c3f3c20003f007031f4acf
:1025580052f820201e4850f8233003fb02f30a22c9
:10256800b3fbf2f3c1f89832f279b3799b0943eae5
:102578008203327a920202f4406213430133727981
:10258800520002f00602307942ead0120232934039
:10259800727a02f00f0293405b0ac1f88832094a46
:1025a8004ff4447303fb04230e2283f8c0225ee237
:1025b800044a4ff4447303fb04231e2283f8c02209
:1025c80055e200bf0008002040787d01d4ab01002f
:1025d800dcd50100bd4a4ff4447303fb04239a6819
:1025e8009268d3f898029047002800f04082b74ad2
:1025f8004ff4447303fb0423d3f89822c3f89422be
:102608000f2283f8c02232e2b04b4ff4447707fb25
:102618000437b7f8822205f2c3210b440093022342
:102628001204072130460df02bff97f8c232032b16
:1026380040f01d8297f8bd3293b997f8d03233b97c
:10264800062287f8c022102287f8c1220fe29f4a8b
:102658004ff4447303fb04230b2283f8c02206e2e1
:102668009a4a4ff4447303fb04231e2283f8c022c2
:10267800fde1964a4ff4447303fb04239b681b6aed
:1026880002a900209847029b13f0007f0bd08f4ac5
:102698004ff4447303fb0423012283f88e221d2286
:1026a80083f8c022e3e113f4006f884a4ff44473bf
:1026b80003fb042314bf11221e2283f8c022d6e193
:1026c800824f4ff4447606fb0476b3689b6a082071
:1026d8009847012286f8c32286f8c422002386f888
:1026e800c53205f13003b168d1f834800821f818f3
:1026f800c047122386f8c032b9e1744f05f2c323ec
:102708003b44009301230022332130460df0b8feec
:102718004ff4447303fb047393f8c232032b40f065
:10272800a68103f20d3303fb0473002283f8c3224e
:1027380093f8bd323bb903f5447303fb04731322ca
:1027480083f8c02293e1614a4ff4447303fb0423e6
:102758001e2283f8c0228ae15c4a4ff4447303fbcb
:10276800042393f88f32002b00f081814ff44473d7
:1027780003fb0423b3f8923223f4fb4323f00f0343
:102788001b041b0c3bb14ff4447303fb04231e22b0
:1027980083f8c0226be14d4a4ff4447303fb0423d2
:1027a80093f8313013f0040f07d04ff4447303fb50
:1027b800042393f8d232012b08d0444a4ff44473cf
:1027c80003fb0423152283f8c02250e103f20f33e0
:1027d80003fb0423062283f8c022142283f8c122b3
:1027e80045e1dff8e8804ff4447606fb04860127cc
:1027f80086f8c37286f8c472002086f8c502b368ea
:102808005b6a9847b3689b6a4ff40070984705f174
:102818008000b3685b6b3a464ff4007140449847b8
:102828000c2386f8c03222e1284f05f2c3233b442b
:10283800009301230022082130460df021fe4ff4b9
:10284800447303fb047393f8c232032b40f00f81e7
:1028580003f20d3303fb0473002283f8c32293f8b9
:10286800bd323bb903f5447303fb04730d2283f8af
:10287800c022fce0154a4ff4447303fb04231e22d4
:1028880083f8c022f3e0114a4ff4447303fb042396
:1028980093f88f32002b00f0ea8013464ff444720d
:1028a80002fb043292f8571192f856311b0443ea9e
:1028b800016392f854110b4392f8551143ea01232e
:1028c800c2f88832142382f8c032d0e00008002011
:1028d800b74a4ff4447303fb042393f8d0325bbb2d
:1028e80002f2c3232b44009301230222062130461f
:1028f8000df0c6fdae4a4ff4447303fb042393f86e
:10290800c232032b40f0b38003f20d3303fb0423e0
:1029180093f8bd3223bb4ff4447606fb0426b36814
:10292800db6a96f8d202984796f8d23286f8813256
:10293800152386f8c0329ae09d4b4ff4447202fb8f
:10294800043292f8d21205f2c322134400930223f0
:10295800984a42ea0122062130460df091fdc9e766
:10296800934a4ff4447303fb04231e2283f8c022c6
:102978007de08f4a4ff4447303fb042393f8d0326d
:1029880023bb03f5447303fb042393f8303013f09f
:102998000f0f07d04ff4447303fb042393f8d1328d
:1029a800012b08d0824a4ff4447303fb04231b22f3
:1029b80083f8c0225be003f20f3303fb04230022f9
:1029c80083f88422162283f8c02250e0012be9d133
:1029d800774a03f20f3303fb042393f8443113f0cf
:1029e800010fdfd04ff4447303fb042393f8d13273
:1029f800012bd7d103f20f3303fb0423192283f8e9
:102a0800c02234e0dff8a8814ff4447707fb04873d
:102a1800bb689b6a40209847012287f8c32287f841
:102a2800c422002387f8c53205f14003b968d1f8fc
:102a38003490402108eb0300c847172387f8c032b9
:102a48005b4b4ff4447707fb043797f8841205f281
:102a5800c322134400930123574a42eac172062154
:102a680030460df00dfd97f8c232032b2cd0504a9a
:102a78004ff4447303fb042393f8c0321d2b00f07a
:102a880064811e2b40f00f84494a4ff4447303fbc2
:102a980004239b78012b00f0b581002b40f00384c0
:102aa800434a4ff4447303fb04239b689b6b98478a
:102ab800002840f0ae813e4a4ff4447303fb0423e0
:102ac800002283f8bf22eee3002287f8c32297f89a
:102ad800bd321bb9182287f8c022c8e7344a4ff420
:102ae800447303fb04231e2283f8c022bfe7304a45
:102af8004ff4447303fb042393f88f32002bb6d0b2
:102b08004ff4447303fb0423b3f8923223f4fb43da
:102b180023f00f031b041b0c3bb14ff4447303fb5e
:102b280004231e2283f8c022a1e7214a4ff44473ec
:102b380003fb042393f88432012b14d01c4a4ff46e
:102b4800447303fb042393f84d3013f0020f25d090
:102b58004ff4447303fb0423012283f884221622d2
:102b680083f8c02283e703f20f3303fb042393f8af
:102b7800503003f00f03012b08d00d4a4ff4447373
:102b880003fb04231d2283f8c02270e703f20f33ee
:102b980003fb04231a2283f8c02268e7044a4ff48f
:102ba800447303fb04231d2283f8c0225fe700bfa0
:102bb800000800200100b70301ffff00c14f05f224
:102bc800c3233b4400930223bf4a062130460df03d
:102bd80057fc4ff4447303fb047393f8c232032b7e
:102be8007ff445af03f20d3303fb047393f8bd3252
:102bf80003bb03f5447303fb04739b689b68b348ea
:102c0800984770b14ff4447606fb0476af4bc6f88c
:102c18009432b3681b6b012098471b2386f8c03297
:102c280025e7a84a4ff4447303fb04231e2283f8c4
:102c3800c0221ce7a34a4ff4447303fb04231e225b
:102c480083f8c02213e79f4a4ff4447303fb04231d
:102c58009b689b689e48984778b19a4b4ff4447696
:102c680006fb04369a4bc6f89432b3681b6b0120f6
:102c780098471b2386f8c032f9e6924a4ff444730a
:102c880003fb04231e2283f8c022f0e68d4f05f2d1
:102c9800c3233b44009301234ff4007210213046b4
:102ca8000df0eefb4ff4447303fb047393f8c23248
:102cb800032b7ff4dcae03f20d3303fb047393f8ac
:102cc800bd323bb903f5447303fb04731c2283f83c
:102cd800c022cce67b4a4ff4447303fb04231e2234
:102ce80083f8c022c3e6774f05f2c3233b44009321
:102cf80000231a46072130460df0c2fb4ff44473f7
:102d080003fb047393f8c232032b7ff4b0ae03f2d3
:102d18000d3303fb04731d2283f8c022a7e6694b19
:102d28004ff4447606fb0436d6f8cc0218f00efbb6
:102d3800002386f8c0329ae6624a4ff4447303fbd4
:102d48000423002283f8c02291e64ff4447303fb66
:102d58000423002283f8da2293f8bc3283b1594a5b
:102d68004ff4447303fb04239b68db6b83b19847e0
:102d7800544a4ff4447303fb042383f88d0207e09d
:102d8800504a4ff4447303fb0423002283f88d2236
:102d98004c4a4ff4447303fb0423d3f888124ff4ce
:102da8000070c3f8f402c3f8f812c3f8fc02c3f8c1
:102db8000013c3f80403c3f808130121c3f8e4128d
:102dc800c3f8e812c3f8ec1205f53d752a44c3f8b8
:102dd800f0229b788b420bd03a4a4ff4447303fba2
:102de8000423012283f8be22042283f8bf225ae278
:102df800344a4ff4447303fb04234ff0ff32c3f803
:102e0800cc22e9e702f110012944204615f0c6fc5e
:102e180049e230492944204615f0c0fc43e247b155
:102e2800284a4ff4447303fb042393f8c232032b5c
:102e380022d0244a4ff4447303fb04239b78022bcb
:102e480000f0fb80012b00f01e81002b40f02b824c
:102e58001c4a4ff4447303fb04239b689b6b9847fd
:102e6800002840f02082174a4ff4447303fb0423e0
:102e7800102283f8bf2216e24ff4447303fb0423a5
:102e88009b78012b11d00f4a4ff4447303fb0423a2
:102e980093f88e3203b3ff233b724ff4447303fb62
:102ea80004230e2283f8bf22fde14ff4447505fb8d
:102eb8000425d5f8cc0218f049fa4ff0ff33c5f8cd
:102ec800cc32e0e7000800200101b90300751903be
:102ed80080f0fa0210080020bf4a4ff4447303fb45
:102ee80004239b7883b94ff4447303fb04239b6842
:102ef8009b6b984740b9b84a4ff4447303fb0423cb
:102f0800102283f8bf22cee102233b72b24a4ff46b
:102f1800447303fb042393f8863213b97b695b027d
:102f28007b617b7f012b12d0ab4a4ff4447303fbc8
:102f3800042393f88d32002b3ad0ff233b724ff4d1
:102f4800447303fb04230e2283f8bf22abe1a24a99
:102f58004ff4447303fb0423012283f8c422bb69a2
:102f680093421ad012233b779b4a4ff4447303fbd6
:102f78000423012283f8c522974a4ff4447303fbc4
:102f880004239b78022b34d0934a4ff4447303fbf9
:102f98000423072283f8bf2285e111233b778e4a59
:102fa80003f2ff2303fb0423002283f8c522e3e78f
:102fb800894a4ff4447303fb0423002283f8c42294
:102fc800bb69012b0ad019233b77834a4ff444731a
:102fd80003fb0423012283f8c522cde718233b779e
:102fe8007d4a03f53e7303fb0423002283f8c522c0
:102ff800c2e74ff4447303fb042393f8d032012b48
:1030080008d0754a4ff4447303fb0423072283f85e
:10301800bf2248e103f20f3303fb042393f8da32ab
:10302800012beed103f20f3303fb0423002283f8b4
:10303800da22052283f8bf2235e14ff4447303fbfb
:10304800042393f8d032012b40f02d814ff44473c0
:1030580003fb042393f8d932002b00f024814ff4aa
:10306800447303fb042393f8da32002b40f01b81ee
:103078004ff4447303fb0423012283f8da22052268
:1030880083f8bf220fe1544a4ff4447303fb04232f
:10309800d3f8cc02b0f1ff3f11d01af0f1ff0028ad
:1030a80000f001814c4a4ff4447303fb04234ff0b2
:1030b800ff32c3f8cc22062283f8bf22f3e005f5dd
:1030c80033714ff4447303fb04231144586816f01a
:1030d80025fe012840f0e7803f4a4ff4447303fb84
:1030e80004230e2283f8bf22dde03b4b4ff44477e4
:1030f80007fb0437002287f8c322b7f8820297f843
:10310800da22d20305f2c3252b440093022342eab4
:103118000042052130460df0b3f997f8c232032b6f
:1031280040f0c18097f8bd3283b997f8da32012ba5
:1031380008d0294a4ff4447303fb0423072283f879
:10314800bf22b0e0042287f8bf22ace0224a4ff445
:10315800447303fb0423102283f8bf22a3e01e4b11
:103168004ff4447707fb0437002287f8c322b7f8e7
:10317800822205f2c3252b440093012312040d215a
:1031880030460df07df997f8c232032b40f08b8062
:1031980097f8bd32b3b9bb681b6a03a900209847ea
:1031a800039bc3f34323032b03d0102287f8bf22ca
:1031b80079e0094a4ff4447303fb0423042283f89b
:1031c800bf2270e0044a4ff4447303fb0423102227
:1031d80083f8bf2267e000bf00080020bf4b4ff410
:1031e800447707fb0437b7f8822205f2c3252b443e
:1031f800009302231204072130460df041f997f895
:10320800c232032b4fd197f8bd3243b9bb681b6a52
:1032180003a900209847082387f8bf3243e0af4a44
:103228004ff4447303fb04230e2283f8bf223ae0d1
:10323800002f43d0b8690128a84a4ff4447303fb10
:1032480004239b685b6a0cbf002080b29847a34b9d
:103258004ff4447808fb0438d8f808309b6a4ff4d8
:1032680000709847012388f8c332b969d8f8083044
:103278005b6b7a7f490238699847092388f8bf321f
:103288007a69397f954f05f2c3253d44009501239e
:1032980030460df0f5f84ff4447303fb047393f8cc
:1032a800c232032b13d08d4b4ff4447202fb04340b
:1032b800012384f80c3305b0bde8f083874a4ff446
:1032c800447303fb04230e2283f8bf22ebe74ff479
:1032d800447303fb0473002283f8c32293f8bd32be
:1032e8003bb94ff4447303fb04730a2283f8bf22eb
:1032f800d9e77a4a4ff4447303fb04230e2283f878
:10330800bf22d0e7754a4ff4447303fb042393f8b4
:103318008f32002bc7d04ff4447303fb0423b3f858
:10332800923223f4fb4323f00f039bb23bb14ff4db
:10333800447303fb04230e2283f8bf22b3e767b16b
:10334800bb69012b654a4ff4447303fb04238cbf0c
:103358000b220c2283f8bf22a5e7604a4ff444737e
:1033680003fb04230e2283f8bf229ce75b4f05f280
:10337800c3253d440095022300220c2130460df060
:103388007ff84ff4447303fb047393f8c232032ba2
:1033980089d14ff4447303fb047393f8bd323bb9ee
:1033a8004ff4447303fb04730c2283f8bf227ae7bb
:1033b8004a4a4ff4447303fb04230e2283f8bf22c6
:1033c80071e7464b4ff4447707fb0437b7f882227e
:1033d80005f2c3252b440093012312040d21304626
:1033e8000df04ef897f8c232032b7ff45caf97f8d4
:1033f800bd326bb9bb681b6a03a900209847039bc1
:1034080013f4807f3ff44faf0d2287f8bf224ae7bd
:10341800324a4ff4447303fb04230e2283f8bf227d
:1034280041e7dff8b88005f2c3254544009500233d
:103438001a46072130460df023f84ff4447303fb76
:10344800048393f8c232032b7ff42daf00233b7221
:103458004ff4447303fb04830f2283f8bf2222e74f
:103468001e4a4ff4447303fb04239b7873b94ff44b
:10347800447505fb0425ab689b6b9847184b18707f
:10348800ff233b720f2385f8bf320ce7134b4ff431
:10349800447808fb0438002288f8c322b8f882224e
:1034a80005f2c3251d440095012312040d21304661
:1034b8000cf0e6ff98f8c232032b7ff4f4aeff233a
:1034c8003b720f2288f8bf2298f8bd32002b3ff4d8
:1034d800eaae034b00221a70e5e600bf00080020a0
:1034e800062a0020b7b17968c8b22e4b4ff444724f
:1034f80002fb0432d2f8b83203eb0013da689142c7
:1035080014d0d6f8ac322bb11a6ac6f8ac22002215
:103518001a621a70244b1b78a3b1224a4ff44473e1
:1035280003fb0423042283f8bf22bce65d68002d58
:10353800e7d097f908009a68f968003018bf0120a9
:10354800a847dee7184b01221a70164a4ff4447355
:1035580003fb0423102283f8bf22a4e600232b6276
:103568002b70d6f8ac528db12b6ac6f8ac322a79da
:10357800d7f8b83203eb0213d3f80490b9f1000f6f
:10358800ecd09a68e9684046c847e7e7054a4ff42f
:10359800447303fb0423002283f8be2283f8bf226e
:0c35a80081e600bf00080020062a002079
:020000040000fa
:1035b4002de9f04f91b00f210a2019f07dfb039003
:1035c40010f0010f40f02185039b13f0020f40f02f
:1035d400408511b0bde8f08fd9f8187007f11003d9
:1035e4000793fb680d933b690e9300228df83c20f2
:1035f40006238df83d302b0a43ea0523adf83e300f
:103604000c210da814f004f8c3439bb2b9f822208e
:1036140012f0040f33d02a464146484613f02af8e4
:103624000490049b002b40f05986404614f0eafabb
:1036340098f80cb04fea1b1b4fea8b030693d9f89a
:103644001cb0bbf80220002a00f04b86fe89bb891f
:103654001e44bbf800301e445640b6b2cf4bd3f8dc
:1036640000c0bcf1000f00f03f86d9f828e0cc4b35
:103674001b68059300239a46194610460fe01a4624
:103684002946404613f0c4ff0490cae7b4f86a2000
:1036940082422fd001331bb2194663452fd2059abb
:1036a40052f82140002cf5d094f86e200b2af1d06a
:1036b40094f86f100129edd8216c09b18e45e9d138
:1036c400002ae3d0b4f86a20b242e3d1dbf8001058
:1036d400a26d9142ded1a16bfa689142dad1012147
:1036e40084f86f10c4f840e0079a204618f062f995
:1036f400a24621e0baf1000f08bfa246cae7baf118
:10370400000f7fd0fb68caf8383001218af86f10a7
:10371400caf840e0079a504618f04cf9aaf86a60d3
:10372400bbf80030aaf85830bbf80230aaf85a3077
:10373400daf80030caf81030d9f8102093890699c5
:103744005b1a938198f80d40d8f80870d8f8046093
:103754009af8373013f0400f57d19af86d306ff361
:1037640000038af86d309af86e30002b68d0012b74
:1037740000f0ac801435069aa5eb020b1ffa8bfb04
:10378400abf1140292b2069214f0010207921abf2e
:10379400abf1130b1ffa8bf2069a059214f0020f89
:1037a40003d0059a013292b20592daf81c50daf885
:1037b40020209542c0f0db80daf81810daf8140003
:1037c400091aa5eb020ba1eb0b0b1ffa8bfbdaf822
:1037d4005020b51a059a002a00f0e680bbf1000fcc
:1037e40000f0d280002dc0f2c9805d45c0f0e180b8
:1037f400059aabeb0202ab4500f3db80954240f344
:10380400d880c1e06ff00e01fbe300238af8713029
:103814009af8363013f0020f9fd119f001fb83465a
:10382400baf86830059319f023fb059b00fb03f0fd
:103834005c4ba3fb00300beb9010caf824008ce720
:1038440014f0040f2cd114f0100f2ed114f0020f29
:1038540037d00136caf85060404610f057fdaaf838
:103864006200504617f053fb01221221504602f029
:10387400cfff02238af86e30baf87220049b1a40f4
:1038840000f03585daf87440002c00f03285daf85f
:103894007830d9f82810baf93400a0470221b0e3ef
:1038a400002150460bf006fee6e7caf84c700022f1
:1038b4000421504602f0acff002150460bf0fafd03
:1038c400dae7002150460bf0f5fdd5e714f0040fbc
:1038d400d2d114f0100f00f00e85daf84c50af423c
:1038e4002ad114f0020fc7d00136caf85060b8f8d4
:1038f4000e30aaf86630aaf85c30404610f006fd97
:10390400aaf86200504617f002fb0122102150462b
:1039140002f07eff03238af86e309af8373013f0f2
:10392400400f13d19af836306ff341038af83630da
:103934004ff4807304939fe7caf84c70012204216a
:10394400504602f065ffcaf84c5095e719f068fa42
:103954000546baf8684019f08bfa00fb04f3114ae3
:10396400a2fb032305eb9313caf82430dae7a2eb96
:10397400050b0bf1ff3b1ffa8bfb28e705990a4661
:10398400691800293ff735af14f0040f7ff474afc2
:1039940001221021504602f03bff6de72c29002044
:1039a40028290020d34d62101db1002decdb5d45ac
:1039b400eada14f0060f11d114f0100f3ff45cafe3
:1039c400023b072b00f2fe80dfe813f0190024000d
:1039d400240024002400fc002400f90114f0040f46
:1039e40008d09af8373043f002038af837304ff49e
:1039f40000630493002150460bf05cfd3ce7daf8c9
:103a04004c3008939f4220d103238af86e304ff440
:103a140080730493daf808c0daf81030bceb0300c2
:103a24001ed4daf84c107a1a121a002a28ddbaf8d1
:103a34006c0000f40170042801d1012a17d000227f
:103a44001021504602f0e4fe16e7caf84c70012239
:103a54000421504602f0dcfe089bcaf84c300be708
:103a6400daf80410daf80020891a0844d9e7013199
:103a7400caf84c109af86d2042f002028af86d20c0
:103a8400daf84c200992daf80c100891a3eb010e35
:103a94008b422fd2daf80400daf80010411ab81a6f
:103aa40070440844002838dddaf804200a92daf871
:103ab4000010521a0b9290422cd89af86c1001f014
:103ac400ef016ff345118af86c109af836106ff312
:103ad40045118af83610089a0244caf80c200b994a
:103ae4000b449342c0f0ff800a9b9a42c0f0558475
:103af40000f04fbc0999781a704400280adddaf8fe
:103b040004100a460a91daf80010521a0b929042f5
:103b140040f22084089a93422cd09af86c1011f049
:103b2400100f21d011f0200f18d0099aa2eb0e012a
:103b3400caf84c10089a934207d2daf80430daf83b
:103b440000001b1acb1acaf84c30089bcaf8103074
:103b54009af8363043f080038af836309af86c309d
:103b640043f020038af86c309af86c3043f0100369
:103b74008af86c30daf80c309c4500f0bc80b8f858
:103b84000e30baf866209a4238bfaaf86630daf8de
:103b94004c20b8f80e303b449b1a9bb2baf85c1028
:103ba40031b92bb19af8361041f040018af8361039
:103bb400aaf85c309af86e30042b00f0d780062bfc
:103bc40000f0f58014f0200f7ff456ae9af86e20c2
:103bd400a2f10803dbb2012b7ff64eae062a3ff4b6
:103be4004bae069a002a3dd0002d40f3f380069b8d
:103bf4002b445b4504ddabeb050b1ffa8bf30693fb
:103c040098f80c301b0908eb83030c93daf81c10aa
:103c1400daf81830069a2a440a44934280f06981fb
:103c24005a1a0132521b00f156811ffa82f80124fc
:103c3400009443460ca802462944484613f082f9ee
:103c44008346069aa2eb080300949bb20caadaf806
:103c54001410484613f076f9584480b2069b834208
:103c640000f05081059bcbb19af86e30033bdbb278
:103c7400022b84bfdaf81c30caf820309af83630a8
:103c840013f0100f40f06d819af8363043f01003b2
:103c94008af8363013f0080f00f06981079b002b77
:103ca4003ff4eaaddaf850300133059a32449342d6
:103cb4007ff4e2adcaf85030049b43f4806293b2bf
:103cc40004939af8373043f004038af837309af8ab
:103cd4006e30023b032b00f27881dfe813f05d01c4
:103ce40066016f018601d31a09990b44caf84c3056
:103cf400caf810204ae39af8373013f0010f1dd1a7
:103d040013f0400f06d19af836306ff341038af866
:103d1400363034e719f084f80890baf8683009931b
:103d240019f0a6f8099b00fb03f34ff47a72b3fb76
:103d3400f2f3089a1344caf82430e4e7daf84c3072
:103d44009f427ff41caf9af86c3013f0040f3ff4d9
:103d540016af9af836306ff341038af836309af882
:103d640037306ff300038af8373008e7974204d0fe
:103d740014f0200f3ff435af7ee59af86c3013f061
:103d8400040ff5d019f04cf8089019f071f841f2cd
:103d9400883303fb00f34ff47a72b3fbf2f3089a0f
:103da4001344caf8303005238af86e30e0e79742ae
:103db4007ff462ad002150460bf07cfb5ce5daf841
:103dc4004c3001339f427ff457ad002150460bf035
:103dd40071fb51e598f80c301b09c5eb8303434490
:103de4000c932a4493b29b4528bf9b46daf81c10d7
:103df400daf8183001eb0b0293425cd25b1a03f140
:103e040001081ffa88f5012400942b460caa4846a1
:103e140013f098f80690abeb050300949bb20caa40
:103e2400daf81410484613f08df8069b034498b250
:103e3400abeb0803daf81420134458457ff412afaf
:103e4400daf850105944caf85010caf81c309af8dd
:103e54006e20033ad2b2022a04d8049a42f40072c1
:103e640092b20492daf85420b2f1ff3f3ff4faae72
:103e7400a2eb0b0bcaf854b0baf8602012eb0b0299
:103e840024d4bbf1000f3ff7edae1144caf8501033
:103e94001344caf81c30daf81820934206d9daf829
:103ea4001410521ad2431344caf81c304ff0ff3393
:103eb400caf85430d6e6012300935b460caa484660
:103ec40013f040f8daf81c305b44b6e74ff0ff33e8
:103ed400caf85430c6e6681edaf814209b1ac01ad1
:103ee40001230093069b0caa0144484613f02af8c8
:103ef400b4e601230093069b0caa2944484613f018
:103f040021f8abe6daf85430b3f1ff3f13d09d4209
:103f140017d2069a5119baf86020d018814204d8f1
:103f24008b4202d8431b9bb20693069baaf86030cf
:103f3400caf8545096e6caf85450069baaf8603062
:103f440090e6baf860201a440698411991427ff627
:103f540089ae95423ff686aeeb1a1844aaf8600083
:103f640080e601221021504602f052fc96e6dbb2b4
:103f740043f008038af8363018f052ff044618f06c
:103f840077ff642303fb00f34ff47a72b3fbf2f37d
:103f94001c44caf82c4081e609238af86e300122b9
:103fa4001121504602f034fc66e408238af86e308e
:103fb4009af86d3013f0010f07d05de4daf84c3055
:103fc4009f4208d006238af86e3001221021504601
:103fd40002f01efc50e400221021504602f018fcae
:103fe400002150460bf066fa46e4002210215046a8
:103ff40002f00efc002150460bf05cfa3ce46ff03a
:104004000d010a22484616f083fe0a2019f0b6ff75
:10401400814600283ff4d8aab9f82050132deed9d0
:10402400d9f81c8098f80c301b09042b0bd9b5eb7c
:10403400830f0bdbb9f8223013f4007f3ff4ccaad2
:104044006ff00e01dde76ff00d01dae76ff00d019f
:10405400d7e7bd4b1b68002b3ff4bbaa00252b46ba
:10406400dff8e892dff8e8a2dff8dc82dee018f09f
:10407400d7fea36ac01a0028a8bf1026ede018f0e6
:10408400cffee36ac01a0028c0f2ed8094f86e30c7
:10409400052b00f09981102687f001023146204655
:1040a40002f0b6fbe7e018f0bbfe236bc01a002851
:1040b400c0f2de8001221421204602f0a9fb002177
:1040c40020460bf0f7f9a9e094f8366006f00106f3
:1040d4000121204610f04cfd94f8363043f00103e2
:1040e40084f836304ff480520021204615f0d4fc79
:1040f400002e40f0938094f836306ff3000384f878
:1041040036300a2384f86e3088e018f089fe636a3a
:10411400c01a0028c0f2828094f86e104b1e082b3f
:104124007ad8dfe803f0054256617969797971003c
:1041340094f87030032b28d80221002694f87030ac
:10414400013384f87030a36c5b00a3642069e268d7
:10415400831a9bb2904204d260682768c01b034450
:104164009bb2e06cc01ae064b4f85c000344a4f8a9
:104174005c3022610022204602f04afb002e4dd022
:10418400002120460bf096f948e0042384f87030af
:1041940018f06efe4ff47a7303fb00f3aafb0323bb
:1041a4009b091b01a3640221c7e794f87030022b1a
:1041b40040f2c08094f8366006f001031e46002bde
:1041c40018bf1421002fb9d10122204602f020fb90
:1041d400d4e794f87030042b40f2ae80042384f8c2
:1041e4006e3011210026ede794f87030042b40f274
:1041f400a58014210126e5e794f87030042b40f2e1
:104204009f8014210126dde794f87030042b40f2de
:10421400998014210126d5e7002e5cd101352db2f9
:104224002b46d8f800209542bff4d3a9d9f8002032
:1042340052f82340002cf1d094f86e300b2bedd0c3
:1042440094f8363013f0c0061dbf1f46df09102650
:10425400002713f0040f7ff40aaf94f8363013f0fc
:10426400080f7ff40caf94f86e30052b3ff41bafae
:10427400002e7ff411af94f8363013f0020f7ff460
:1042840044af94f8373013f0400fc7d094f86e3031
:10429400032bc3d118f0c4fd636ac01a0028bddb28
:1042a40094f8712094f87c309a423ff40daf0222c6
:1042b4001021204602f0acfa18f0b2fd0746b4f81b
:1042c400686018f0d5fd00fb06f0aafb003007eb90
:1042d40090106062a2e73146002673e76ff009018f
:1042e4008fe66ff00e018ce66ff00e0189e6022175
:1042f40087e6022185e614f0020f3ff4bdaa0136d9
:10430400caf85060b8f80e30aaf86630aaf85c30e3
:1043140040460ff0fbffaaf86200504616f0f7fd86
:1043240001221221504602f073fa02238af86e30f9
:10433400fff7a2ba122100e71021fee61121fce6e4
:104344001021fae61121f8e62c2900202829002062
:10435400d34d62109af86c1001f0ef016ff3451120
:104364008af86c109af836106ff345118af83610f3
:10437400089a0244caf80c209342bff4b5abd31a8e
:1043840009990b44caf84c30caf810200a9b93428e
:104394000cd80b9bd21acaf80c20daf810300a9aff
:1043a4009a4203d80b9a9b1acaf810309af86e30c6
:1043b400032b02d0082b7ff4ddab049b43f00402f3
:1043c40093b20493fff7d6bb18f02afd236bc01aef
:0c43d4000028bff66fae10265ee600bfaa
:020000040000fa
:1043e000602700201c00000000000000682400205e
:1043f00068000000000000004414002004000000d9
:1044000000000000601f0020f80000000100000014
:10441000c88e010000000000000000000000000045
:10442000000000000000000000000000000000008c
:10443000000000000000000000000000000000007c
:10444000000000000000000000000000000000006c
:10445000000000000000000000000000000000005c
:10446000000000000000000000000000000000004c
:10447000000000000000000000000000000000003c
:10448000000000000000000000000000000000002c
:10449000000000000000000000000000000000001c
:1044a000000000000000000000000000000000000c
:1044b00000000000000000000000000000000000fc
:1044c00000000000000000000000000000000000ec
:1044d00000000000000000000000000000000000dc
:1044e00000000000000000000000000000000000cc
:1044f00000000000000000000000000000000000bc
:104500000000000000000000d7280020010000008b
:1045100001000000ff000000e42200200400000071
:1045200000000000e82200208000000000000000e1
:10453000fc290020020000000100000054000000df
:10454000c0210020940000000000000000080020ae
:104550001003000000000000062a002001000000f7
:1045600001000000010000002829002004000000d4
:10457000000000002c2900200400000000000000c2
:10458000421e002002000000000000004e1e00201d
:10459000020000000000000030290020040000009c
:1045a000000000003429002004000000000000008a
:1045b000382900200400000000000000072a002025
:1045c00001000000000000003c2900200400000061
:1045d00000000000802500204800000000000000ce
:1045e000202900200600000001000000ffffffff5f
:1045f000ffff000040290020040000000000000030
:104600004429002004000000000000004829002088
:104610000400000000000000d82800200c0000006a
:10462000000000002828002010000000000000000a
:10463000082a0020010000000000000006290020d8
:1046400002000000000000002629002002000000f7
:10465000000000004c2900200400000000000000c1
:104660003828002010000000000000005029002021
:104670000400000000000000542900200400000095
:1046800000000000c82600202800000000000000f4
:10469000582900200400000000000000f02600203f
:1046a0002800000001000000bb010300d10101004f
:1046b0004b020100330203007c020300dd03030010
:1046c000de030300e0030300e1030100b322010065
:1046d000542200209000000000000000100b002079
:1046e00070020000000000005c29002004000000af
:1046f000000000006029002004000000000000000d
:104700006429002004000000000000006829002047
:1047100004000000000000006c29002004000000dc
:1047200000000000702900200400000000000000cc
:104730007429002004000000000000004828002028
:104740001000000000000000d0270020180000002a
:10475000000000007c2700201c000000000000007a
:10476000782900200400000000000000092a002031
:1047700001000000000000007c290020040000006f
:10478000000000008029002004000000010000005b
:10479000ffffffff8429002004000000000000004c
:1047a0005828002010000000000000008829002088
:1047b00004000000000000008c290020040000001c
:1047c000000000000a2a0020010000000000000094
:1047d000c81b00204c01000000000000141d002038
:1047e0002e01000000000000fc2800200a0000004c
:1047f00000000000902900200400000000000000dc
:10480000fa2900200200000000000000fe2900201c
:1048100002000000000000009429002004000000b5
:1048200000000000982900200400000000000000a3
:104830009c2900200400000000000000c82800207f
:104840000f000000010000002d680000002d610035
:1048500000002d68610000000b2a0020010000000c
:1048600001000000ff000000a0290020040000005b
:1048700000000000a4290020040000000000000047
:10488000a82900200400000000000000ac2900203e
:104890000400000000000000b02900200400000017
:1048a000000000000c2a00200100000000000000b1
:1048b000b429002004000000000000000d2a0020a0
:1048c000010000000100000004000000402700205b
:1048d0002000000000000000b829002004000000b3
:1048e00000000000bc2900200400000000000000bf
:1048f000c02900200400000000000000c42900209e
:104900000400000000000000002a00200200000057
:1049100000000000c8290020040000000000000082
:10492000cc29002004000000000000000e2a002016
:1049300001000000000000001012002034020000fe
:1049400000000000601a0020680100000000000064
:10495000702800201000000000000000e428002063
:104960000c00000000000000682300208000000010
:1049700000000000e823002080000000000000008c
:1049800010260020400000000000000068280020e1
:104990000800000000000000f02800200c000000cb
:1049a0000000000058200020c800000000000000a7
:1049b0000f2a00200100000000000000102a002043
:1049c000010000000000000008290020080000008d
:1049d00000000000112a002001000000000000007b
:1049e000d02900200400000000000000122a00204e
:1049f0000100000000000000d42900200400000095
:104a000000000000802800201000000000000000ce
:104a1000022a0020020000000000000054160020be
:104a20000002000000000000c02800200800000074
:104a300000000000132a0020010000000000000018
:104a4000102900200800000000000000902800202d
:104a50001000000000000000501e002010010000a7
:104a600000000000a028002010000000000000004e
:104a7000182900200800000000000000142a00206f
:104a80000100000000000000f829002002000000e2
:104a900000000000000000200008000000000000ee
:104aa000601800200002000000000000182700200d
:104ab0002800000000000000982700201c000000d3
:104ac00000000000e827002018000000010000009e
:104ad000182700209827002054180020000000000c
:104ae00060180020000000000028002014000000d2
:104af0000100000064d7010068d701006cd70100f5
:104b000074d7010078d701009026002038000000fb
:104b100000000000d00f0020400200000000000054
:104b2000800d00205002000000000000152a002027
:104b3000010000000000000050260020400000009e
:104b40000000000020210020a00000000000000064
:104b5000042a002002000000010000000100000003
:104b6000d82900200400000000000000dc290020fb
:104b70000400000000000000c825002048000000dc
:104b800000000000b028002010000000000000001d
:104b9000b42700201c000000000000005418002072
:104ba0000c00000000000000e029002004000000cc
:104bb0000000000014280020140000000100000084
:104bc00001010000b1d90000e9db0100551c010022
:104bd0007abc0000d024002060000000000000002b
:104be000441e00200a00000000000000e42900200c
:104bf0000400000000000000e8290020040000007c
:104c000000000000302500205000000000000000df
:104c1000481400200c02000000000000ec290020d5
:104c20000400000000000000f02900200400000043
:104c300000000000f4290020040000000000000033
:104c40000000000000000000222222222222222254
:020000040000fa
:104c50002de9f04f97b011900d461746009311a81b
:104c600013f086fe0028c0f29a83b54b53f820302b
:104c70000bb100221a70b34b13f81020019203eb12
:104c8000400393f80190b04b002d08bf1d4610461d
:104c900019f050fc10f0010f40f0838310f0040f66
:104ca00040f084836b681593002b5dd0159a531eda
:104cb000b3f5004f62d30123159395f8018008f1f5
:104cc000ff33dbb2022b28bf4ff00108ae68731e22
:104cd000b3f5004f55d206f00f03002b18bf4ff469
:104ce0000076ec68b4f1807f4ed8631e2340002b21
:104cf00018bf0024009bb3f5007fc0f05983002f3c
:104d000000f058832b78029300231493b9f1000f1d
:104d10003cd0012300223946019817f09dfd002860
:104d200040f04a8397f8ff2197f8fe3143ea0223c7
:104d30001bb2864a934240f0418307eb091505f503
:104d4000d775b9f1040f00f23b832b79002b00f0eb
:104d5000398305f1080019f037fa039005f10c00ca
:104d600019f032fa149027e015aa0321019816f0e1
:104d7000dafb00289ad0012315939ee71a429ad1b4
:104d80009be74ff40076ace70024b3e714aa0121b7
:104d9000019816f0c8fb002840f01683029b13f020
:104da000080f07d1149b3f2b60d93f3b14933f233f
:104db000039301e000230393149b7f2b40f20683af
:104dc000b4f5813f34bf640a8024029b13f00202d1
:104dd0000a924ed003f00103002b0cbf03230223e1
:104de0000893c34618f019f91090ddf850a04fea67
:104df0001a3cc6f31613069303994a1c0c921344eb
:104e00000593159b03f1ff3e5b4204934fea5a431f
:104e10000d9301f120030b93cdf838800f96089e77
:104e20000997032e00f0e882002c42d02546bafbf9
:104e3000f5f340f6f572934250d902335b0003f26a
:104e4000ff13590a059b01fb0b320eeb020304987a
:104e500003409b1ab3fbfbf00bfb1030002844d03f
:104e6000013b039802300790022041e000230393a6
:104e7000a2e7029b13f0010f00f0aa82022308931d
:104e8000afe72c46cde7324b9a4510d9314b9a1cef
:104e900002252b460d99099f8b4206d86d0032f8ea
:104ea000023f002bf8d10997aae20997a8e2012551
:104eb000a6e2baf5805f0fd3274b9a1c0225042384
:104ec000099f634506d86d0032f8023f002bf8d1e8
:104ed0000997ace70997aae70125a8e703eb430385
:104ee00001335b0803330126a9e70c9807900120e2
:104ef000b3fbfbf30b440699039fd21b02eb051295
:104f00009245c0f069824218aaeb02020bfb132201
:104f1000b2fbf5f2032e21d0022e3cd14ff6f578ec
:104f200042452ad9002c40f065826d00402da8d959
:104f30000a9b002b40f06082802d1cd82c4670e725
:104f4000d4290020f829002024e5010055aafffffc
:104f5000ffff010014e5010004e501004ff6f578bc
:104f6000424518d8002c40f03982012d01d96c0837
:104f700057e70e2316e20e2314e240f6f577ba4205
:104f800000f2ed80002c40f02b826c00802c7ff62c
:104f900048af0e2306e2ddf83880059104460493fd
:104fa000334608960f9e0692099f012b40f0fa8027
:104fb00040f6f5739a4200f215824ff40072002118
:104fc000384619f0cffad34b03cb386079601a8892
:104fd0009b783a81bb720023fb7202233b737d7383
:104fe000bc73c4f30723fb7387f810807e74c6f389
:104ff0000726be74baf5803f80f0f28087f813a0d0
:10500000caf307233b75009b4fea5328109b534478
:105010009a46f8237b753f233b7600237b76ff225d
:10502000ba76fb76039907f11c0019f05bfa089b2e
:10503000032b00f0db80514607f1270019f052faec
:10504000049bbb75c3f30723fb75802387f82430cb
:10505000292387f8263007f12b06af4c0fccc7f871
:105060002b007160b260f3602288a3783282b3743f
:10507000552387f8fe31aa2387f8ff310123039acd
:105080003946019817f0e4f8002840f0ad81009b04
:1050900023f4ff7222f001020021384619f062fa6f
:1050a000bbf1000f00f0c981089b012b9b4b18bf7f
:1050b0006ff0070300934ff0000a0395079ecdf8a9
:1050c0001890089b032b00f013810099384619f0c3
:1050d00009fa049d4ff000092c46454528bf444677
:1050e000234632463946019817f0b2f8002840f0be
:1050f0007d814ff400724946384619f033fa264450
:105100002d1be9d10af1010ad345dad8039d079690
:10511000ddf81890059b089a032a08bf2b461d4608
:10512000079e2c46454528bf44462346324639460d
:10513000019817f08df8002840f05a8126442d1b65
:10514000efd1089a032a00f0f180149bb3f5803f59
:1051500080f0fd80022a0cbf04240124e7e0ddf882
:10516000388005910446049308960f9e0692099f85
:105170004ff400720021384619f0f4f9654b03cb67
:10518000386079601a889b783a81bb720023fb7281
:1051900002233b737d73bc73c4f30723fb7387f84f
:1051a000108023e74ff400720021384619f0daf935
:1051b000584b03cb386079601a889b783a81bb7270
:1051c0000023fb7202233b737d73bc73c4f307237c
:1051d000fb7387f81080089b032b08bf002605e7a8
:1051e000514607f1200019f07df90ce7514607f10f
:1051f000430019f077f9049907f1240019f072f9c6
:10520000022107f12c0019f06df94ff0010c87f81d
:1052100030c0002387f83130062287f8322087f823
:105220003330802387f84030292387f842303c4cc4
:105230000fccc7f84700c7f84b10c7f84f20c7f886
:1052400053302288a378a7f8572087f85930552380
:1052500087f8fe31aa2387f8ff316346039a39465f
:10526000019816f0f5ff08b101239be00123039c90
:10527000a21d3946019e304616f0eaff4ff4007237
:105280000021384619f06ef92649384619f02af9f6
:10529000254907f5f27019f025f9069b591e07f507
:1052a000f47019f01ff9022107f5f67019f01af9d8
:1052b000552387f8fe31aa2387f8ff310123e21d29
:1052c0003946304616f0c4ff01230c9a3946304661
:1052d00016f0beff009b23f4ff7222f001020021b2
:1052e000384619f03ff9bbf1000f7ff4ddae11e74e
:1052f0006ff00701384619f0f5f84ff0ff31381d0f
:1053000019f0f0f86ff0704107f1080019f0eaf8b1
:10531000dfe600bfc0990100e0990100f8ffff003f
:10532000cc99010052526141727241610c24b9f171
:10533000000f0ed1029b13f0080f22d0002211465d
:10534000019816f0f0f8031c18bf01232ae0062488
:10535000ede7012300223946019d284617f07cfa2b
:1053600008b101231ee007eb091989f8b2410123b6
:1053700000223946284616f06bff0028ded00123b4
:1053800010e0149b1293002313933b46224612a96c
:10539000019809f0b3f803460028cfd002e00b23b0
:1053a00000e00323184617b0bde8f08f0a23f9e7a1
:1053b0001123f7e71123f5e70123f3e70e23f1e7c4
:1053c0000e23efe70e23ede70123ebe70e23e9e7da
:1053d0001323e7e70e23e5e70e23e3e70e23e1e7d8
:1053e0000e23dfe70e23dde70123dbe70123d9e707
:1053f0000123d7e70a9bf3b1002c3ff444ad2546c7
:10540000bafbf5f2930003f207235b0aa2f57f4291
:10541000f63a0b498a42ddd80b9e03fb0b620eeb7a
:10542000020104980140891a01f1200071180791c6
:105430000021032660e50e23b4e7059d079e70e674
:04544000fffffe0f5d
:020000040000fa
:105444005478204279746520436f756e742d6c6fa7
:10545400776572203332626974732854784f544ce0
:105464004f29000065e601005478204279746520d4
:10547400436f756e742d7570706572203136626974
:1054840074732854784f54484929000071e6010088
:105494005478204672616d657320772f6f20657292
:1054a400726f722854784654434e54290000000009
:1054b400000000007de6010054782042726f6164b0
:1054c40063617374204672616d6573285478424336
:1054d40046542900000000000000000089e6010095
:1054e4005478204d756c74696361737420467261dd
:1054f4006d65732854784d4654290000000000005f
:105504000000000095e60100547820506175736531
:10551400204672616d657328547850465429000002
:10552400000000000000000000000000a1e60100ef
:1055340054782036342d62797465204672616d6525
:105544007328547842465436342900000000000081
:1055540000000000ade6010054782036352d3132cc
:10556400372062797465204672616d6573285442f0
:10557400465431323729000000000000b9e601002a
:105584005478203132382d323535206279746520d3
:105594004672616d6573285442465432353529008c
:1055a40000000000c5e601005478203235362d3560
:1055b40031312062797465204672616d65732854b7
:1055c400424654353131290000000000d1e6010083
:1055d4005478203531322d3130323320627974657c
:1055e400204672616d65732854424654313032331b
:1055f40029000000dde60100547820313032342dda
:10560400313531382062797465204672616d657375
:10561400285442465431353138290000e9e6010066
:105624005478204672616d6573203e3d20313531da
:105634003820627974652847544246313531382917
:1056440000000000f5e60100547820556e64657290
:1056540072756e204672616d6573206e6f7420548e
:1056640058656428547854555229000001e7010014
:1056740054782053696e676c6520436f6c6c697352
:10568400696f6e204672616d657328547853434682
:10569400290000000de70100547820322d31352017
:1056a400436f6c6c6973696f6e204672616d6573cc
:1056b4002854784d434629000000000019e70100f2
:1056c400547820313620436f6c6c6973696f6e2097
:1056d4004672616d65732854784543434e542900de
:1056e4000000000025e701005478206c61746520f7
:1056f400436f6c6c6973696f6e204672616d65737c
:105704002854784c43434e542900000031e70100eb
:105714005478204465666572726564204672616dd2
:1057240065732854784454462900000000000000a2
:10573400000000003de70100547820436172726963
:1057440065722053656e7365206572726f722046b0
:1057540072616d65732854784353452949e7010004
:105764005278204279746520436f756e742d6c6f86
:10577400776572203332626974732852784f524cc1
:105784004f29000055e701005278204279746520c2
:10579400436f756e742d7570706572203136626951
:1057a40074732852784f52484929000061e7010078
:1057b4005278204672616d657320772f6f20657271
:1057c400726f722852784652434e542900000000ea
:1057d400000000006de7010052782042726f61649e
:1057e40063617374204672616d6573285278424315
:1057f40046522900000000000000000079e7010083
:105804005278204d756c74696361737420467261bb
:105814006d6573202852784d46522900000000001f
:105824000000000085e7010052782050617573651f
:10583400204672616d6573285278504652290000e3
:1058440000000000000000000000000091e70100db
:1058540052782036342d62797465204672616d6504
:105864007328527842465236342900000000000062
:10587400000000009de7010052782036352d3132ba
:10588400372062797465204672616d6573285442cd
:10589400465231323729000000000000a9e7010018
:1058a4005278203132382d323535206279746520b2
:1058b4004672616d6573285442465232353529006b
:1058c40000000000b5e701005278203235362d354e
:1058d40031312062797465204672616d6573285494
:1058e400424652353131290000000000c1e7010071
:1058f4005278203531322d3130323320627974655b
:10590400204672616d6573285442465231303233f9
:1059140029000000cde70100527820313032342dc7
:10592400313531382062797465204672616d657352
:10593400285442465231353138290000d9e7010054
:105944005278204672616d6573203e3d20313531b9
:105954003920627974657328544d5842465229009f
:1059640000000000e5e701005278204672616d6591
:1059740073203c203634206279746573285278553c
:10598400465229000000000000000000f1e7010079
:105994005278204672616d6573203e20313531386e
:1059a4002062797465732852784f465229000000aa
:1059b40000000000fde701005278206572726f72ea
:1059c400204672616d6573203e2031353138206286
:1059d400797465732852784a5229000009e8010055
:1059e400527820435243206572726f72204672616e
:1059f4006d65732852784643534529000000000022
:105a04000000000015e801005278204c656e6774b0
:105a140068206669656c64206572726f72204672d4
:105a2400616d65732852784c4646452921e801008a
:105a340052782073796d626f6c206572726f722078
:105a44004672616d657328527852534529000000ef
:105a5400000000002de80100527820616c69676e37
:105a64006d656e74206572726f72204672616d6529
:105a740073285278414529000000000039e80100ec
:105a84005278205265736f75726365204572726f28
:105a9400722028527852524529000000000000006c
