:020000040000fa
:10000000f0ff0320e197010023610100fb6f010075
:10001000e77e010087810100738801000000000075
:100020000000000000000000000000002b5c010048
:1000300023750100000000002b5c01002b5c010017
:100040002b5c01002b5c01002b5c01002b5c010090
:100050002b5c01002b5c01002b5c01002b5c010080
:100060002b5c01002b5c01002b5c01002b5c010070
:100070002b5c01002b5c01002b5c01002b5c010060
:100080002b5c01002b5c01002b5c01002b5c010050
:100090002b5c01002b5c01002b5c01002b5c010040
:1000a0002b5c01002b5c01002b5c01002b5c010030
:1000b0002b5c01002b5c01002b5c01002b5c010020
:1000c0002b5c01002b5c01002b5c01002b5c010010
:1000d0002b5c01002b5c01002b5c01002b5c010000
:1000e0002b5c01002b5c0100000000000000000000
:1000f000000000002b5c01002b5c01002b5c010068
:100100002b5c01002b5c0100bdf80000bdf8000075
:10011000bdf80000bdf800002b5c01002b5c010065
:100120002b5c01002b5c01002b5c01002b5c0100af
:100130002b5c01002b5c01002b5c01002b5c01009f
:100140002b5c01002b5c01002b5c01002b5c01008f
:100150002b5c01002b5c01002b5c01002b5c01007f
:100160002b5c01002b5c01002b5c01002b5c01006f
:100170002b5c01002b5c01002b5c01002b5c01005f
:100180002b5c01002b5c01002b5c01002b5c01004f
:10019000a90002002b5c01002b5c01002b5c01001c
:1001a0002b5c01002b5c01002b5c01002b5c01002f
:1001b0002b5c01002b5c01002b5c01002b5c01001f
:1001c0002b5c01002b5c01002b5c01002b5c01000f
:1001d0002b5c01002b5c01002b5c01002b5c0100ff
:1001e0002b5c01002b5c01002b5c01008d020200e6
:1001f0002b5c01002b5c01002b5c01002b5c0100df
:100200002b5c01002b5c01002b5c01002b5c0100ce
:100210002b5c01002b5c01002b5c01002b5c0100be
:100220002b5c01002b5c01002b5c01002b5c0100ae
:100230002b5c01002b5c01002b5c01002b5c01009e
:100240002b5c01002b5c01002b5c01002b5c01008e
:100250002b5c01002b5c01002b5c01002b5c01007e
:0402600055640100e0
:020000040000fa
:10026400f8b500bff8bc08bc9e46704731e30100f6
:10027400f8b500bff8bc08bc9e4670470de301000a
:020000040000fa
:08028400c8c8000001000000e1
:020000040000fa
:10028c002de9f04fadf2445d0c461a2801f2ae8414
:10029c00dfe810f01b00350071005c01bf00320379
:1002ac008202c1022d03390ae70a2f0b4203bb0b52
:1002bc00410c90078202d1005701b00cb00cb00c6d
:1002cc004d0ca20cfc02fc024d0c91f8423043f098
:1002dc0001036ff3410381f842300123cb73496969
:1002ec0039b10a2204f1430022f0b2f9012501f0e0
:1002fc0082bc002384f84330012501f07cbc91f8ca
:10030c00423013f0010f04d10623cb73012501f009
:10031c0072bcbf4b1b684bb34d69be4b1b68cb1af1
:10032c001b11bd4a02fb03f3adf870314ff6ff739e
:10033c00adf87231b1f90400adf874015ea91cf08e
:10034c00e3fab34b1e68b54b1b685caa294604f153
:10035c004300b047054648b194f8423043f00203dd
:10036c0084f842300223e37301f045bc0623e373a7
:10037c00012501f040bc8b7b012b23d05ab222b15a
:10038c00082b2dd0002501f036bcb1f90600b0f1d8
:10039c00ff3f10d0c96b09b118f026f920684369ea
:1003ac00616b9847b4f9060017f040fc0123a37366
:1003bc00002501f020bc0323cb7308238b7300258d
:1003cc0001f019bcb1f906001cf0eef90546002845
:1003dc0041f016840323e3730823a37301f00bbcd1
:1003ec0000220121b4f9040013f042fb10b90025de
:1003fc0001f001bcb4f904001cf0d6f90546002844
:10040c0001f0f983b4f9040016f06cfc002501f03e
:10041c00f2bb486a1df0defd0546c3b22381a06a1b
:10042c001df0d8fdc0b240ea052020810c23e373f7
:10043c00012501f0e0bbdcad40f211120021284691
:10044c0021f0d6fe764b0fcb85e80f00284621f025
:10045c00d7fe002281b2b4f9040013f009fb30b9c5
:10046c001723e37302232373012501f0c4bbdca81b
:10047c0021f0c6fe82b2dca9b4f9040018f05cfcd1
:10048c00b4f904001cf06cfa40f211120021dca843
:10049c0021f0aefe634b93e80300dc90adf87413cf
:1004ac00090c8df87613dca821f0aafe002281b28b
:1004bc00b4f9040013f0dcfa30b91723e373022308
:1004cc002373012501f097bbdca821f099fe82b2c1
:1004dc00dca9b4f9040018f02ffcb4f904001cf0ea
:1004ec003ffa40f211120021dca821f081fe4e4aa5
:1004fc00dcab07ca03c31a80dca821f081fe002202
:10050c0081b2b4f9040013f0b3fa30b91723e373d2
:10051c0002232373012501f06ebbdca821f070fed1
:10052c0082b2dca9b4f9040018f006fcb4f904009a
:10053c001cf016fa1723e37302232373012501f031
:10054c005abb1423cb73012501f055bb8b7b012bbc
:10055c0034d05ab2b2b1022b40f018814e6bb4f9c0
:10056c0006001cf021f9054600285fd0226b002afa
:10057c005cd0b6f1ff3f42d02068056a00233146bb
:10058c00a84758e091f8423013f0020f09d013f04d
:10059c00040f0bd00e23e3730123a373002501f08a
:1005ac002abb0623cb73012501f025bb084615f0a9
:1005bc0019fe0028eed1012501f01dbbb1f9060092
:1005cc001cf0f2f80546002801f01583236b002b74
:1005dc0040f0df8020680368012261699847064675
:1005ec00b0f1ff3f03d060630223a373b7e70d2381
:1005fc00e37320461ff0ecfd002501f0fcba132339
:10060c00e3730023236320461ff0e2fd01f0f3baed
:10061c00202f0020282f00203dcff33c1c2f002042
:10062c00c4730000d4730000dc730000b4f906003e
:10063c001cf0baf888b394f8423013f0080f1cbfc2
:10064c0043f0100384f842304ff400780027b4f9db
:10065c00060017f041fb0546002835d042463946c6
:10066c005ca821f0c5fdb5f5007f28bf4ff40075df
:10067c00aab25ca9b4f9060013f07cfe034600286c
:10068c0056d02068056b5caa3146a847b0f1ff3ff5
:10069c0065d020f01bf9e062d9e720684369314648
:1006ac0098474ff0ff336363002222631023e373f8
:1006bc0094f8423062f3820384f8423020461ff0f3
:1006cc0087fd012501f097ba94f8423013f0100f12
:1006dc000cd12068436a31469847b0f1ff3f07bf01
:1006ec00002525632063002501f085ba94f842307b
:1006fc006ff3041384f84230606b1af09bfb4ff0dd
:10070c00ff336363002525630923e37394f84230b8
:10071c0065f3820384f8423020461ff059fd94f8ab
:10072c00423065f3c30384f84230012501f063ba0b
:10073c0020684369314698474ff0ff3363630022ca
:10074c0022630923e37394f8423062f3820384f842
:10075c00423020461ff03cfd012501f04cba2068c8
:10076c004369314698474ff0ff336363002222639d
:10077c000923e37394f8423062f3820384f8423025
:10078c0020461ff025fd012501f035ba002501f0aa
:10079c0032ba002501f02fba4ff4807200215ca808
:1007ac0021f026fd2068836bff225ca9984720b1bd
:1007bc000d23e373012501f01eba40f21112002142
:1007cc00dca821f015fd5caab949dca821f024f9bc
:1007dc00dca821f015fd002281b2b4f9040013f05d
:1007ec0047f920b91723e37302232373e2e7dca84c
:1007fc0021f006fd82b2dca9b4f9040018f09cfad1
:10080c00b4f904001cf0acf81723e3730223237330
:10081c00012501f0f0b90868436b4969984740b964
:10082c002068836bff225ca9984738b10d23e373d2
:10083c0001e00d23e373012501f0ddb95caa9d49ac
:10084c00dca821f0e9f8dca821f0dafc002281b266
:10085c00b4f9040013f00cf920b91723e373022345
:10086c002373e8e7dca821f0cbfc82b2dca9b4f955
:10087c00040018f061fab4f904001cf071f81723a5
:10088c00e37302232373012501f0b5b908680369ea
:10089c004969984740b220b10d23e373012501f05b
:1008ac00aab9626984495ca821f0b6f85ca821f069
:1008bc00a7fc002281b2b4f9040013f0d9f820b9d6
:1008cc001723e37302232373e8e75ca821f098fc59
:1008dc0082b25ca9b4f9040018f02efab4f9040041
:1008ec001cf03ef81723e37302232373d6e70c2383
:1008fc00cb73012501f07fb90c23cb73b1f9063012
:10090c00b3f1ff3f02d1012501f075b908461ff084
:10091c005ffc012501f06fb94ff4907200215ca8c7
:10092c0021f066fc0bab654a07ca03c31a80a37b94
:10093c00082b00f23384dfe813f009002a0031049d
:10094c007e00c900d001e601e702210494f8423090
:10095c0013f0040f0bd094f8423013f0020f0ed0aa
:10096c000823e3730123a373002501f044b9204647
:10097c0015f038fc0028eed1012501f03cb9062316
:10098c00e37320461ff024fc012501f034b9b4f9bf
:10099c0006001bf009ff0546002801f02c810323fb
:1009ac00a37367693b7823b90523a373002501f072
:1009bc0022b9dff814810026b2464ff0ff0b5ffa24
:1009cc0086f94146384621f0a9f990b13c4b83f8a1
:1009dc0000a03c4b83f800b0013608f10508032e4b
:1009ec00edd1384621f00cfcff281ad8002501f077
:1009fc0002b9334b01221a70324b83f80090a06974
:100a0c0021f0fefbff2802d8002501f0f4b80d23dd
:100a1c00e37320461ff0dcfb294b00221a7001f017
:100a2c00eab80d23e37320461ff0d2fb244b0022bf
:100a3c001a7001f0e0b8224b1d78e5b120684368cc
:100a4c005caaa1699847b0f1ff3f0ad09df87831b4
:100a5c0013f0100f0cbf04230523a373002501f022
:100a6c00cab80d23e37320461ff0b2fb144b0022cf
:100a7c001a7001f0c0b8206843685caa6169984795
:100a8c00b0f1ff3f09d09df8783113f0100f0cbf77
:100a9c0004230523a37301f0aeb80d23e3732046a2
:100aac001ff096fb064b00221a70012501f0a3b82b
:100abc00e8730000fc730000107400003074000038
:100acc00b62f0020b72f0020582e0020b34e3046f2
:100adc0021f096fb012281b2b4f9060012f0c8ff96
:100aec0005464ff497720021304621f081fbac4b48
:100afc001b78ff2b18d0236b002b55d0a94b1e88cd
:100b0c00b54240d2a54f384621f07afb811b2a46cc
:100b1c003944b4f9060018f00ff9a24a13885d1b8a
:100b2c001580002501f067b8236b002be6d16269b4
:100b3c009d49304620f070ff304621f061fb06b233
:100b4c00ae4219dd002e12dd944fa846b4f9069082
:100b5c00384621f055fb85422cbf82b242463946bd
:100b6c00484618f0e9f8761b36b2002eeedc082366
:100b7c00a373002501f03fb882b28849b4f906008e
:100b8c0018f0daf8f3e7854d284621f039fb811b84
:100b9c0032462944b4f9060018f0cef80025814bf2
:100bac001d80256301f027b87c4e4ff497727f4966
:100bbc00304621f04dfd304621f022fb854218d8fd
:100bcc0001232363b4f90660744821f019fb8542b4
:100bdc002cbf82b22a46714c2146304618f0acf834
:100bec00204621f00dfb401b6e4b1880002501f0b8
:100bfc0002b8374682b23146b4f9060018f09cf8b8
:100c0c000026684b1e802663159616961796189626
:100c1c0019961a968df86c600f9610961196bdf871
:100c2c007431bdf87611c3f34312dff88c814800a0
:100c3c0000f03e000390c1f345100290c90a0191e7
:100c4c00590a01f2bc71009103f01f03013a08f13b
:100c5c00a40115a820f0e0fe5c9a08f1c4010fa8cd
:100c6c0020f0dafe4ff497723146384621f0c0fa84
:100c7c00a36900930fab15aa08f1c801384620f000
:100c8c00cbfe384621f0bcfa854218d801232363e9
:100c9c00b4f90660414821f0b3fa85422cbf82b208
:100cac002a463e4c2146304618f046f8204621f0a4
:100cbc00a7fa401b3b4b1880002500f09cbf82b26a
:100ccc003649b4f9060018f037f80025354b1d806d
:100cdc0025630823a37300f08ebf4ff49772002195
:100cec002e4821f085fa2e4b1b78ff2b2ed0206836
:100cfc00c368a1699847b0f1ff3f33d0606300230c
:100d0c0023630623a373254821f07afa012281b2ca
:100d1c00b4f9060012f0acfe0546236b002b4dd047
:100d2c00204b1e88b04228d21c4f384621f068fa5e
:100d3c00811b2a463944b4f9060017f0fdff194a05
:100d4c0013885d1b1580002500f055bf61690b7879
:100d5c0023b92068c36816499847cce72068c36854
:100d6c009847c8e70d23e37320461ff031fa114b67
:100d7c0000221a70012500f03ebf084d284621f0d4
:100d8c003ffa811b32462944b4f9060017f0d4ff10
:100d9c000025044b1d80256300f02dbf142100207d
:100dac00b72f0020aa2f00203c74000044740000d0
:100dbc00a0740000b62f0020c4730000894e4ff4bd
:100dcc0097728949304621f043fc304621f018fadd
:100ddc00854218d801232363b4f90660814821f0b9
:100dec000ffa85422cbf82b22a467e4c21463046f1
:100dfc0017f0a2ff204621f003fa401b7b4b188012
:100e0c00002500f0f8be82b23146b4f9060017f0a6
:100e1c0093ff0023754a138023631caba293ff231b
:100e2c00a393d4f83490724820f0c4fa05460028f5
:100e3c005ed0dff8c4b1dff8bca10027cdf8867115
:100e4c00cdf88a71cdf88e718df89271ff223946ea
:100e5c001ca821f0cdf95cab20225946484611f074
:100e6c00d7fbb0f1ff3f46d04ff49472daf8001084
:100e7c005f4820f0f9fb064600285ed09df87831db
:100e8c000373bdf874310381bdf87631438100f1f1
:100e9c001a084ff480723946404621f0a9f90df535
:100eac00c371404621f0cefb5c9b7360a39bc6f8dc
:100ebc002031a29821f0a4f9c6f81c7183b2002b42
:100ecc00bcd01f46daf800309b687a1c0121daf896
:100edc0000009847002841d0c6f81c013a46a29958
:100eec0020f0b7ffd6f81c01384400234370a4e768
:100efc00012500f080be20688369494698474ff071
:100f0c00ff3363630723a373394b1f68354821f004
:100f1c0077f9012281b2b4f9060012f0a9fd064658
:100f2c00002f57d0002800f03c81dff8c0b0dff86c
:100f3c00cc9009f1a4030793d8e020688369494653
:100f4c0098474ff0ff3363630d23e37320461ff084
:100f5c003ff927481ef048fc00f04dbe206883691d
:100f6c00494698474ff0ff3363630d23e3732046e4
:100f7c001ff02ef91e4b9b68002b13dd1d4c1c4fd4
:100f8c0008e038461df06cfd06462068c368314603
:100f9c0098473eb1d6f81c110029f2d02068c368de
:100fac009847eee712481ef01ffc00f024be0d4dd2
:100fbc00284621f025f9a0eb080132462944b4f962
:100fcc00060017f0b9fe094a13889e1b1680002fe5
:100fdc0040f0ea8006481ef007fc0823a3730025a6
:100fec0000f009be1421002044740000aa2f002038
:100ffc00ec2d0020302f0020a4740000c4730000de
:10100c000025159516951795189519951a958df81f
:10101c006c500f95109511954ff4977a52462946be
:10102c00ae4821f0e5f83a897b89590001f03e0180
:10103c000391c3f345110291db0a0193530a03f2a6
:10104c00bc73009302f01f03c2f34312079915a857
:10105c0020f0e2fc7a6809f1c4010fa820f0dcfc56
:10106c0097f80c80c8f30018524629469b4821f08b
:10107c00bff8d7f81c21002a63d00bab03eb880315
:10108c0001920faa0092434415aa09f1e401934876
:10109c0020f0c2fc924b1868c368d7f81c11984713
:1010ac008e4821f0adf885b2b54259d22a46b542e8
:1010bc0028bf324692b28949b4f9060017f03cfebb
:1010cc000023abf800302363761bb6b2854d28465f
:1010dc001df0c6fc824b1b68da6801461846904727
:1010ec002f68002f3ff476af002e60d0236b002bbf
:1010fc0086d0bbf80080b0453ff659af774d2846f7
:10110c0021f07ef8a0eb080142462944b4f9060010
:10111c0017f012febbf80030f61ab6b20023abf88b
:10112c00003023636f4d28461df09afc6c4b1b68f6
:10113c00da680146184690472f68002f7ff460af9d
:10114c0048e70bab03eb88031a3701970faa009201
:10115c00434415aa09f1e401604820f05dfc9fe7c7
:10116c000123236332465d49b4f9060017f0e4fd10
:10117c00ad1b5d4b1d80002500f03dbd20461ff0d2
:10118c0027f81023e373594bff221a700023564a99
:10119c001380574a1370012500f02dbd002500f077
:1011ac002abd002500f027bd002500f024bd002538
:1011bc0000f021bd4ff4907200215ca821f018f8ca
:1011cc000fad4c4e0fce0fc596e8030045f8040b3f
:1011dc002980a37b082b00f28e82dfe813f0090034
:1011ec002a008c028c028c023700430036018502e7
:1011fc0094f8423013f0040f0bd094f8423013f0f3
:10120c00020f0ed00823e3730123a373002500f013
:10121c00f2bc204614f0e6ff0028eed1012500f0c8
:10122c00eabc0623e37320461ef0d2ff012500f032
:10123c00e2bcb4f906001bf0b7fa0546002800f032
:10124c00da840523a373002500f0d5bc2068c3689d
:10125c0029499847b0f1ff3f27d0606300232363ef
:10126c000623a373254820f0cbff012281b2b4f9e9
:10127c00060012f0fdfb0546236b002b42d0204be1
:10128c001e88b04219d21d4f384620f0b9ff811b81
:10129c002a463944b4f9060017f04efd184a138853
:1012ac005d1b1580002500f0a6bc0d23e3732046c2
:1012bc001ef08eff012500f09ebc104d284620f03c
:1012cc009fff811b32462944b4f9060017f034fd08
:1012dc0000250b4b1d80256300f08dbc14210020d4
:1012ec00302f0020ec2d0020aa2f0020b72f00203b
:1012fc00b62f0020bc740000a0740000c81f002092
:10130c00a62f0020864e4ff4a6728649304621f057
:10131c009ff9304620f074ff854218d801232363cf
:10132c00b4f906607e4820f06bff85422cbf82b278
:10133c002a467b4c2146304617f0fefc204620f016
:10134c005fff401b784b1880002500f054bc002137
:10135c00754b198021631caeff252a46304620f0c0
:10136c0047ffa296a395d4f83490704820f022f849
:10137c00054600285ed0dff8bcb1dff8b4a1002729
:10138c00cdf88671cdf88a71cdf88e718df8927189
:10139c00ff2239461ca820f02bff5cab3a4659467d
:1013ac00484611f035f9b0f1ff3f45d04ff4947237
:1013bc00daf800105d4820f057f9064600285dd099
:1013cc009df878310373bdf874310381bdf8763123
:1013dc00438100f11a084ff480723946404620f0e0
:1013ec0007ff0df5c371404621f02cf95c9b73602f
:1013fc00a39bc6f82031a29820f002ffc6f81c71fe
:10140c0083b2002bbcd01f46daf800309b687a1ce4
:10141c000121daf80000984700283fd0c6f81c01db
:10142c003a46a29920f015fdd6f81c013844002349
:10143c004370a4e70125dee3206883694946984799
:10144c004ff0ff3363630723a373384b1f68344893
:10145c0020f0d6fe012281b2b4f9060012f008fb8e
:10146c000646002f55d0002800f04781dff8b8a0c1
:10147c00dff8c49009f588730793e5e02068836969
:10148c00494698474ff0ff3363630d23e3732046bf
:10149c001ef09efe25481ef0a7f9ace32068836978
:1014ac00494698474ff0ff3363630d23e37320469f
:1014bc001ef08efe1d4b9b68002b13dd1c4c1b4f2e
:1014cc0008e038461df0ccfa06462068c368314661
:1014dc0098473eb1d6f81c110029f2d02068c36899
:1014ec009847eee711481ef07ff984e30c4d28462f
:1014fc0020f086fea0eb080132462944b4f9060020
:10150c0017f01afc084a13889e1b1680002f40f017
:10151c00f68006481ef068f90823a37300256ae3d9
:10152c00c81f002044740000a62f0020ec2d0020c2
:10153c00302f0020a4740000c47300000025159502
:10154c0016951795189519951a958df86c500b954d
:10155c000c950d958df83850089509950a954ff412
:10156c00a67b5a462946ae4820f042fe3b89c3f37f
:10157c004312013a590a01f2bc71009103f01f03a6
:10158c00a84951f82220079915a820f045fa7a8924
:10159c00c2f34513d20a09f590710ba820f03cfa5e
:1015ac007a6809f1c40108a820f036fa97f80c8083
:1015bc00c8f300185a462946994820f019fed7f866
:1015cc001c1100296cd009f594734fea880242442f
:1015dc0008eb4202049115a9039108a90291019309
:1015ec0000930fa90a4409f596718d4820f014fa5e
:1015fc008d4b1868c368d7f81c119847884820f0a1
:10160c00fffd85b2b54262d22a46b54228bf3246aa
:10161c0092b28349b4f9060017f08efb0023aaf8a6
:10162c0000302363761bb6b2804d28461df018faa5
:10163c007d4b1b68da680146184690472f68002fcf
:10164c003ff467af002e5cd0236b002b3ff476afda
:10165c00baf800804645fff449af714d284620f09a
:10166c00cffda0eb080142462944b4f9060017f05f
:10167c0063fbbaf80030f61ab6b20023aaf80030b1
:10168c0023636a4d28461df0ebf9674b1b68da683b
:10169c000146184690472f68002f7ff44faf38e76c
:1016ac0009f594734fea8802424408eb42021a3758
:1016bc00049715a9039108a90291019300930fa90e
:1016cc000a4409f59671564820f0a6f996e70123cd
:1016dc00236332465249b4f9060017f02dfbae1bba
:1016ec00534b1e80002586e220461ef071fd102310
:1016fc00e37301257fe200257de200257be20025d6
:10170c0079e2002577e20b6b5bb90868036800226d
:10171c00496998470146b0f1ff3f0bd020684369f7
:10172c009847a37b012b22d05ab23ab1032b2ad073
:10173c00002560e20d23e37301255ce294f842304e
:10174c0013f0020f08d013f0040f09d00e23e3732b
:10175c000123a37300254ee20623e37301254ae21d
:10176c00204614f03ffd0028f0d1012543e2b4f9e6
:10177c0006001bf019f80546002800f03c820323f4
:10178c00a373002537e2226b002a3dd12068036841
:10179c00616998478046b0f1ff3f00f03382606387
:1017ac000023236301224ff40071b4f9060012f0f8
:1017bc005ff90546d0b147462068c66a2b46b5f599
:1017cc00007f28bf4ff400735caa3946b047064629
:1017dc0000282fd082b25ca9b4f9060017f0acfa3d
:1017ec00ad1b1ff073f8e062002de5d12068436a51
:1017fc0041469847b0f1ff3f06bf002323632063a7
:10180c00236b0bb30025f6e1616b8846b1f1ff3f0a
:10181c0000f0f8812068056a0023a847c2e700bfe2
:10182c00c81f0020c8fa0100302f0020ec2d00202a
:10183c00a62f002020684369394698474ff0ff33a4
:10184c00636300232363dbe720461ef0c1fc0923fe
:10185c00e37394f842306ff3820384f8423001252d
:10186c00c9e1086803680022496998470646b0f147
:10187c00ff3f21d02068c3693146984700258df879
:10188c0084540246c2490df2844020f0c5f80df292
:10189c00844020f0b5fc2a4681b2b4f9040012f061
:1018ac00e7f868b91723e3730223237320684369ad
:1018bc003146984701259ee10d23e37301259ae1fa
:1018cc000df2844020f09cfc82b20df28441b4f9fc
:1018dc00040017f031fab4f904001bf041f8172397
:1018ec00e37302232373206843693146984701252b
:1018fc0081e10020019000900346012206210df0a9
:10190c00ebfce080b0f1ff3f40d00023a14a40f255
:10191c00046116f0f7ffe06300283bd00df5a161e0
:10192c00b4f904001af0f0ff0df59a61b4f9060051
:10193c001af0eaff00258df89054bdf8f634dab2af
:10194c0003921b0a02939df81f3501939df81e35d7
:10195c0000939df81d359df81c258f490df592605f
:10196c0020f05af8bdf8f63423810df5926020f082
:10197c0047fc2a4681b2b4f9040012f079f888b910
:10198c001723e37302232373012534e10a23e37342
:10199c00012530e1b4f9060016f048f90a23e37387
:1019ac00012528e10df5926020f02afc82b20df59c
:1019bc009261b4f9040017f0bff9b4f904001af0fd
:1019cc00cfff1723e37302232373744bda8852b9c6
:1019dc00724b1a8982b994f8423043f0040384f8ac
:1019ec004230012507e10321b4f906001af0b0fedc
:1019fc0005460028ecd1fee00221b4f906001af0ed
:101a0c00a7fe05460028e6d1f5e091f84130012b00
:101a1c0003d91223cb730125ede00df5a161b4f9c7
:101a2c0004001af071ff00200190009003469df80d
:101a3c00082506210df050fce080b0f1ff3f2bd0c3
:101a4c000023544a40f2046116f05cffe06338b3a3
:101a5c000df59a61b4f906001af056ff00258df8c1
:101a6c009054bdf8f6244e490df592601ff0d4ff4a
:101a7c00bdf8f63423810df5926020f0c1fb2a46a7
:101a8c0081b2b4f9040011f0f3ff88b91723e373a2
:101a9c00022323730125aee00a23e3730125aae098
:101aac00b4f9060016f0c2f80a23e3730125a2e08c
:101abc000df5926020f0a4fb82b20df59261b4f9a1
:101acc00040017f039f9b4f904001af049ff172390
:101adc00e37302232373314bda8852b92f4b1a89e3
:101aec0082b994f8423043f0040384f84230012563
:101afc0081e00321b4f906001af02afe05460028fd
:101b0c00ecd178e00221b4f906001af021fe05466a
:101b1c000028e6d16fe048691cf05cfa6081e0694e
:101b2c001cf058fa20810c23e373012563e091f833
:101b3c00423013f0020f03d10623cb7301255ae078
:101b4c000868836849699847b0f1ff3f04d0d8b959
:101b5c001523e37301254ee020f04afd0546802253
:101b6c0000215ca820f044fb072d1bd0102d1fd0aa
:101b7c005ca820f045fb002281b2b4f9040011f0fe
:101b8c0077ffd8b9022323730d23e373012532e0c9
:101b9c001075000005c701001c7500008c2e00207c
:101bac004c75000062691f495ca81ff035ffdfe728
:101bbc0062691d495ca81ff02fffd9e75ca820f0d3
:101bcc001ffb82b25ca9b4f9040017f0b5f8b4f9a4
:101bdc0004001af0c5fed7e791f8423013f0020f5b
:101bec0014bf0c230623cb73012504e00523cb7310
:101bfc00012500e0012528460df2445dbde8f08f7b
:101c0c000025f8e71023e3730025256320461ef01a
:101c1c00dffa94f8423065f3820384f842300125f0
:0c1c2c00e9e700bf7c750000a075000017
:020000040000fa
:101c38002de9f04385b00446002303934ff444751f
:101c480005fb00f5ba4e2e4496f80c33012b1ed036
:101c5800b74a4ff4447303fb0423d3f8ac7293f8e8
:101c6800bf32102b01f21f83dfe813f0230054006a
:101c780066009b00d9083f0a790ab80ae20a0a0beb
:101c88004c0b800bab0bdb0bfa0b3c0c150000224a
:101c980086f80c23dce7d6f8ac52002d01f07684e8
:101ca800a34b4ff4447707fb04374ff0010801f0ca
:101cb8005bbc9f4a4ff4447303fb04239b789bb996
:101cc8004ff4447303fb04239b689b6b98470028dd
:101cd80001f0e982964a4ff4447303fb042301227e
:101ce80083f8bf2201f0dfba914e05f110013144ab
:101cf80020461af0c1f84ff4447505fb0465ab683b
:101d08005b6898478b4bc5f89432032385f8bf323c
:101d180001f0c9ba88492944fa201bf0e9fb0028d8
:101d280041f0c182824a4ff4447303fb0423022228
:101d380083f8bf2201f0b7ba7d4a4ff4447303fb1e
:101d48000423d3f8c8021ff0afff002801f0ab82cc
:101d5800774a4ff4447303fb04239b689b6b9847b3
:101d680048b9734a4ff4447303fb0423002283f8f1
:101d7800bf2201f098ba6e4e05f110013144204699
:101d88001af07af84ff4447505fb0465ab685b6894
:101d98009847684bc5f89432032385f8bf3201f0a1
:101da80082ba00230293624a4ff4447303fb04236c
:101db80093f8c032212b00f2bf87dfe813f022002e
:101dc8005d007d009300bf00e9005e0187017e028f
:101dd800be0257031205350564050b0425045a0491
:101de80081049e04cd048905da0523064106980678
:101df800ff06440767079407b007b007f5016902b3
:101e080011034b4a4ff4447303fb0423d3f8942281
:101e1800484b9a4215d0464a4ff4447303fb0423b7
:101e28009b689b6843489847002800f02086404af2
:101e38004ff4447303fb04233e4ac3f8942200f092
:101e480016be3b4a4ff4447303fb04239b78012bd3
:101e580009d0374a4ff4447303fb0423032283f861
:101e6800c02200f004be03f20f3303fb0423012257
:101e780083f8c02200f0fbbd2d4905f532724ff4fe
:101e8800447303fb0413114458681bf031fb48b931
:101e9800274a4ff4447303fb0423022283f8c02229
:101ea80000f0e5bd224a4ff4447303fb04231e22cd
:101eb80083f8c02200f0dbbd1d4a4ff4447303fbd6
:101ec8000423d3f8c8021ff0effe002800f0cf85e6
:101ed800174a4ff4447303fb0423032283f8c022f8
:101ee80000f0c5bd124f05f2c3233b440093002305
:101ef8001a461946304611f06dfb4ff4447303fb44
:101f0800047393f8c232032b40f0b18507f53271a0
:101f1800294402201bf0ecfa002840f0a8854ff471
:101f2800447303fb0473042283f8c02200f09fbdae
:101f3800000c0020801a0600c80e0020d24a4ff478
:101f4800447303fb0423d3f8c8021ff0adfe002836
:101f580000f08d85cc4a4ff4447303fb042393f8b7
:101f6800d03243b903f5447303fb0423052283f8f5
:101f7800c02200f07cbdc44a4ff4447303fb042321
:101f88001f2283f8c0221422a3f8dc2200f06fbdc0
:101f9800bd4f05f2c3233b44009308234ff4d57289
:101fa8001946304611f016fb4ff4447303fb0473d3
:101fb80093f8c232032b40f05a8503f20d3303fb2a
:101fc8000473062183f8c012072183f8c112002187
:101fd80083f8851205f5337139444ff4fa601bf024
:101fe80087fa012820d0a84a4ff4447303fb04233e
:101ff80093f8bd325bbb03f5447303fb04239b6872
:102008001b6a02a900209847029bc3f30803b3f593
:10201800d57f12d09c4a4ff4447303fb04231e223d
:1020280083f8c02200f023bd4ff4447303fb04730c
:102038001e2283f8c02200f01abd934a03f5b37339
:1020480003fb0423012283f88c2200f010bd022b2d
:1020580009d08d4a4ff4447303fb04231e2283f8ee
:10206800c02200f004bd884a03f20e3303fb0423a8
:10207800002283f88c2200f0fabc834b4ff444779b
:1020880007fb0437b7f8822205f2c3210b440093fb
:10209800012312043721304611f09cfa97f8c23216
:1020a800032b40f0e48497f8bd322bb997f8c1228e
:1020b80087f8c02200f0dbbc734a4ff4447303fb7b
:1020c80004231e2283f8c02200f0d1bc6e4b4ff4cb
:1020d800447707fb043797f88c1297f88522120487
:1020e80005f2c32003440093042342ea81722921a4
:1020f800304611f06ffa97f8c232032b40f0b784dc
:10210800d7f8cc021ff0d0fd20b11e2287f8c022dc
:1021180000f0adbc5c4a4ff4447303fb042393f80e
:10212800bd32bbbb03f5447303fb04239b681b6ae6
:1021380002a900209847029b13f4701f09d1524a44
:102148004ff4447303fb04231e2283f8c02200f0db
:102158008ebc002b0cdb4c4a4ff4447303fb042366
:102168003c2283f88522062283f8c02200f07fbc37
:10217800454a4ff4447606fb0426c3f3807386f879
:102188008632d6f8cc021cf05dfd082386f8c032f2
:1021980000f06dbc3c4a4ff4447303fb04231e2239
:1021a80083f8c02200f063bc374f05f2c3233b44d9
:1021b80000930423354a0121304611f00bfa4ff4fd
:1021c800447303fb047393f8c232032b40f04f842b
:1021d80003f20d3303fb047393f8bd32002b49d18e
:1021e80003f5447303fb04739b681b6a02a9002070
:1021f8009847029b002b11db234a4ff4447303fbdf
:102208000423b3f8dc32dbb91f4a4ff4447303fbf1
:1022180004231e2283f8c02200f029bc4ff4447224
:1022280002fb047203f0c043b3f1804f14bf0023d4
:10223800012382f88632082382f8c03200f017bce6
:1022480011464ff4447202fb0412013ba2f8dc323f
:1022580005f53273194432201bf04af9002840f082
:102268000684094a4ff4447303fb0423202283f8ad
:10227800c022fce3044a4ff4447303fb04231e22e8
:1022880083f8c022f3e300bf000c002000003840b0
:10229800cc4a4ff4447303fb0423d3f8c8021ff05d
:1022a80003fd002800f0e383c64a4ff4447303fba0
:1022b80004231f2283f8c022d9e3c24f05f2c323a7
:1022c8003b440093032300220221304611f082f997
:1022d8004ff4447303fb047393f8c232032b40f0aa
:1022e800c68303f20d3303fb047393f8bd32dbb9e5
:1022f800394605f110034ff4447606fb0476b268bc
:10230800126a19440420904796f8d0321bb9092262
:1023180086f8c022abe3ab4a4ff4447303fb0423b3
:10232800212283f8c022a2e3a64a4ff4447303fb98
:1023380004231e2283f8c02299e3a24f05f2c32387
:102348003b440093072300220321304611f042f951
:102358004ff4447303fb047393f8c232032b40f029
:10236800868303f20d3303fb047393f8bd3273bb0a
:1023780003f5447303fb04739b681b6a02a90020de
:102388009847029b13f4604f07d04ff4447303fb44
:1023980004731e2283f8c02269e31b0c89494ff499
:1023a800447202fb0412a2f882323bb903f544736b
:1023b80003fb0413092283f8c02258e3814a4ff42f
:1023c800447303fb04230a2283f8c0224fe37d4aa7
:1023d8004ff4447303fb04231e2283f8c02246e310
:1023e800784f05f2c3233b44009301234ff4003296
:1023f8000321304611f0eef84ff4447303fb0473e5
:1024080093f8c232032b40f0328303f20d3303fbff
:10241800047393f8bd3203bb03f5447303fb0473e1
:102428009b681b6a02a900209847029b13f4590f66
:1024380007d04ff4447303fb04731e2283f8c022b1
:1024480015e3604a4ff4447303fb04230222a3f804
:1024580082220a2283f8c02209e35a4a4ff44473bd
:1024680003fb04231e2283f8c02200e3554b4ff4dc
:10247800447707fb0437b7f8822205f2c3210b44df
:102488000093032312040921304611f0a3f897f8aa
:10249800c232032b40f0eb824a4a97f8bd32002b38
:1024a80040f0868005f1200616444ff4447707fb78
:1024b8000427bb681b6a31460420984797f8d03236
:1024c800002b3ad1404ac7f89822b37b9b09012bcd
:1024d80025d0337a9b0203f440607279520002f0ef
:1024e8000602384b4ff4447101fb0431f779b37994
:1024f8009b0943ea870303430133307942ead01248
:1025080002329340727a02f00f02a2f1090001220e
:10251800824092b202fb03f3c1f888323fe0f379bc
:102528001b0403f47c12b079737943ea0023134344
:1025380001339b02c7f8883231e0f37a214a4ff41d
:10254800447101fb0421c3f3c20003f007031f4acf
:1025580052f820201e4850f8233003fb02f30a22c9
:10256800b3fbf2f3c1f89832f279b3799b0943eae5
:102578008203327a920202f4406213430133727981
:10258800520002f00602307942ead0120232934039
:10259800727a02f00f0293405b0ac1f88832094a46
:1025a8004ff4447303fb04230e2283f8c0225ee237
:1025b800044a4ff4447303fb04231e2283f8c02209
:1025c80055e200bf000c002040787d01cce40100fa
:1025d80024110200bd4a4ff4447303fb04239a6894
:1025e8009268d3f898029047002800f04082b74ad2
:1025f8004ff4447303fb0423d3f89822c3f89422be
:102608000f2283f8c02232e2b04b4ff4447707fb25
:102618000437b7f8822205f2c3210b440093022342
:1026280012040721304610f0d5ff97f8c232032b69
:1026380040f01d8297f8bd3293b997f8d03233b97c
:10264800062287f8c022102287f8c1220fe29f4a8b
:102658004ff4447303fb04230b2283f8c02206e2e1
:102668009a4a4ff4447303fb04231e2283f8c022c2
:10267800fde1964a4ff4447303fb04239b681b6aed
:1026880002a900209847029b13f0007f0bd08f4ac5
:102698004ff4447303fb0423012283f88e221d2286
:1026a80083f8c022e3e113f4006f884a4ff44473bf
:1026b80003fb042314bf11221e2283f8c022d6e193
:1026c800824f4ff4447606fb0476b3689b6a082071
:1026d8009847012286f8c32286f8c422002386f888
:1026e800c53205f13003b168d1f834800821f818f3
:1026f800c047122386f8c032b9e1744f05f2c323ec
:102708003b440093012300223321304610f062ff3e
:102718004ff4447303fb047393f8c232032b40f065
:10272800a68103f20d3303fb0473002283f8c3224e
:1027380093f8bd323bb903f5447303fb04731322ca
:1027480083f8c02293e1614a4ff4447303fb0423e6
:102758001e2283f8c0228ae15c4a4ff4447303fbcb
:10276800042393f88f32002b00f081814ff44473d7
:1027780003fb0423b3f8923223f4fb4323f00f0343
:102788001b041b0c3bb14ff4447303fb04231e22b0
:1027980083f8c0226be14d4a4ff4447303fb0423d2
:1027a80093f8313013f0040f07d04ff4447303fb50
:1027b800042393f8d232012b08d0444a4ff44473cf
:1027c80003fb0423152283f8c02250e103f20f33e0
:1027d80003fb0423062283f8c022142283f8c122b3
:1027e80045e1dff8e8804ff4447606fb04860127cc
:1027f80086f8c37286f8c472002086f8c502b368ea
:102808005b6a9847b3689b6a4ff40070984705f174
:102818008000b3685b6b3a464ff4007140449847b8
:102828000c2386f8c03222e1284f05f2c3233b442b
:102838000093012300220821304610f0cbfe4ff40c
:10284800447303fb047393f8c232032b40f00f81e7
:1028580003f20d3303fb0473002283f8c32293f8b9
:10286800bd323bb903f5447303fb04730d2283f8af
:10287800c022fce0154a4ff4447303fb04231e22d4
:1028880083f8c022f3e0114a4ff4447303fb042396
:1028980093f88f32002b00f0ea8013464ff444720d
:1028a80002fb043292f8571192f856311b0443ea9e
:1028b800016392f854110b4392f8551143ea01232e
:1028c800c2f88832142382f8c032d0e0000c00200d
:1028d800b74a4ff4447303fb042393f8d0325bbb2d
:1028e80002f2c3232b44009301230222062130461f
:1028f80010f070feae4a4ff4447303fb042393f8c0
:10290800c232032b40f0b38003f20d3303fb0423e0
:1029180093f8bd3223bb4ff4447606fb0426b36814
:10292800db6a96f8d202984796f8d23286f8813256
:10293800152386f8c0329ae09d4b4ff4447202fb8f
:10294800043292f8d21205f2c322134400930223f0
:10295800984a42ea01220621304610f03bfec9e7b8
:10296800934a4ff4447303fb04231e2283f8c022c6
:102978007de08f4a4ff4447303fb042393f8d0326d
:1029880023bb03f5447303fb042393f8303013f09f
:102998000f0f07d04ff4447303fb042393f8d1328d
:1029a800012b08d0824a4ff4447303fb04231b22f3
:1029b80083f8c0225be003f20f3303fb04230022f9
:1029c80083f88422162283f8c02250e0012be9d133
:1029d800774a03f20f3303fb042393f8443113f0cf
:1029e800010fdfd04ff4447303fb042393f8d13273
:1029f800012bd7d103f20f3303fb0423192283f8e9
:102a0800c02234e0dff8a8814ff4447707fb04873d
:102a1800bb689b6a40209847012287f8c32287f841
:102a2800c422002387f8c53205f14003b968d1f8fc
:102a38003490402108eb0300c847172387f8c032b9
:102a48005b4b4ff4447707fb043797f8841205f281
:102a5800c322134400930123574a42eac172062154
:102a6800304610f0b7fd97f8c232032b2cd0504aed
:102a78004ff4447303fb042393f8c0321d2b00f07a
:102a880064811e2b40f00f84494a4ff4447303fbc2
:102a980004239b78012b00f0b581002b40f00384c0
:102aa800434a4ff4447303fb04239b689b6b98478a
:102ab800002840f0ae813e4a4ff4447303fb0423e0
:102ac800002283f8bf22eee3002287f8c32297f89a
:102ad800bd321bb9182287f8c022c8e7344a4ff420
:102ae800447303fb04231e2283f8c022bfe7304a45
:102af8004ff4447303fb042393f88f32002bb6d0b2
:102b08004ff4447303fb0423b3f8923223f4fb43da
:102b180023f00f031b041b0c3bb14ff4447303fb5e
:102b280004231e2283f8c022a1e7214a4ff44473ec
:102b380003fb042393f88432012b14d01c4a4ff46e
:102b4800447303fb042393f84d3013f0020f25d090
:102b58004ff4447303fb0423012283f884221622d2
:102b680083f8c02283e703f20f3303fb042393f8af
:102b7800503003f00f03012b08d00d4a4ff4447373
:102b880003fb04231d2283f8c02270e703f20f33ee
:102b980003fb04231a2283f8c02268e7044a4ff48f
:102ba800447303fb04231d2283f8c0225fe700bfa0
:102bb800000c00200100b70301ffff00c14f05f220
:102bc800c3233b4400930223bf4a0621304610f03a
:102bd80001fd4ff4447303fb047393f8c232032bd3
:102be8007ff445af03f20d3303fb047393f8bd3252
:102bf80003bb03f5447303fb04739b689b68b348ea
:102c0800984770b14ff4447606fb0476af4bc6f88c
:102c18009432b3681b6b012098471b2386f8c03297
:102c280025e7a84a4ff4447303fb04231e2283f8c4
:102c3800c0221ce7a34a4ff4447303fb04231e225b
:102c480083f8c02213e79f4a4ff4447303fb04231d
:102c58009b689b689e48984778b19a4b4ff4447696
:102c680006fb04369a4bc6f89432b3681b6b0120f6
:102c780098471b2386f8c032f9e6924a4ff444730a
:102c880003fb04231e2283f8c022f0e68d4f05f2d1
:102c9800c3233b44009301234ff4007210213046b4
:102ca80010f098fc4ff4447303fb047393f8c2329a
:102cb800032b7ff4dcae03f20d3303fb047393f8ac
:102cc800bd323bb903f5447303fb04731c2283f83c
:102cd800c022cce67b4a4ff4447303fb04231e2234
:102ce80083f8c022c3e6774f05f2c3233b44009321
:102cf80000231a460721304610f06cfc4ff4447349
:102d080003fb047393f8c232032b7ff4b0ae03f2d3
:102d18000d3303fb04731d2283f8c022a7e6694b19
:102d28004ff4447606fb0436d6f8cc021bf08aff33
:102d3800002386f8c0329ae6624a4ff4447303fbd4
:102d48000423002283f8c02291e64ff4447303fb66
:102d58000423002283f8da2293f8bc3283b1594a5b
:102d68004ff4447303fb04239b68db6b83b19847e0
:102d7800544a4ff4447303fb042383f88d0207e09d
:102d8800504a4ff4447303fb0423002283f88d2236
:102d98004c4a4ff4447303fb0423d3f888124ff4ce
:102da8000070c3f8f402c3f8f812c3f8fc02c3f8c1
:102db8000013c3f80403c3f808130121c3f8e4128d
:102dc800c3f8e812c3f8ec1205f53d752a44c3f8b8
:102dd800f0229b788b420bd03a4a4ff4447303fba2
:102de8000423012283f8be22042283f8bf225ae278
:102df800344a4ff4447303fb04234ff0ff32c3f803
:102e0800cc22e9e702f110012944204619f034f8f0
:102e180049e230492944204619f02ef843e247b1e7
:102e2800284a4ff4447303fb042393f8c232032b5c
:102e380022d0244a4ff4447303fb04239b78022bcb
:102e480000f0fb80012b00f01e81002b40f02b824c
:102e58001c4a4ff4447303fb04239b689b6b9847fd
:102e6800002840f02082174a4ff4447303fb0423e0
:102e7800102283f8bf2216e24ff4447303fb0423a5
:102e88009b78012b11d00f4a4ff4447303fb0423a2
:102e980093f88e3203b3ff233b724ff4447303fb62
:102ea80004230e2283f8bf22fde14ff4447505fb8d
:102eb8000425d5f8cc021bf0c5fe4ff0ff33c5f84a
:102ec800cc32e0e7000c00200101b90300751903ba
:102ed80080f0fa02100c0020bf4a4ff4447303fb41
:102ee80004239b7883b94ff4447303fb04239b6842
:102ef8009b6b984740b9b84a4ff4447303fb0423cb
:102f0800102283f8bf22cee102233b72b24a4ff46b
:102f1800447303fb042393f8863213b97b695b027d
:102f28007b617b7f012b12d0ab4a4ff4447303fbc8
:102f3800042393f88d32002b3ad0ff233b724ff4d1
:102f4800447303fb04230e2283f8bf22abe1a24a99
:102f58004ff4447303fb0423012283f8c422bb69a2
:102f680093421ad012233b779b4a4ff4447303fbd6
:102f78000423012283f8c522974a4ff4447303fbc4
:102f880004239b78022b34d0934a4ff4447303fbf9
:102f98000423072283f8bf2285e111233b778e4a59
:102fa80003f2ff2303fb0423002283f8c522e3e78f
:102fb800894a4ff4447303fb0423002283f8c42294
:102fc800bb69012b0ad019233b77834a4ff444731a
:102fd80003fb0423012283f8c522cde718233b779e
:102fe8007d4a03f53e7303fb0423002283f8c522c0
:102ff800c2e74ff4447303fb042393f8d032012b48
:1030080008d0754a4ff4447303fb0423072283f85e
:10301800bf2248e103f20f3303fb042393f8da32ab
:10302800012beed103f20f3303fb0423002283f8b4
:10303800da22052283f8bf2235e14ff4447303fbfb
:10304800042393f8d032012b40f02d814ff44473c0
:1030580003fb042393f8d932002b00f024814ff4aa
:10306800447303fb042393f8da32002b40f01b81ee
:103078004ff4447303fb0423012283f8da22052268
:1030880083f8bf220fe1544a4ff4447303fb04232f
:10309800d3f8cc02b0f1ff3f11d01ef005fe002896
:1030a80000f001814c4a4ff4447303fb04234ff0b2
:1030b800ff32c3f8cc22062283f8bf22f3e005f5dd
:1030c80033714ff4447303fb0423114458681af016
:1030d8000ffa012840f0e7803f4a4ff4447303fb9e
:1030e80004230e2283f8bf22dde03b4b4ff44477e4
:1030f80007fb0437002287f8c322b7f8820297f843
:10310800da22d20305f2c3252b440093022342eab4
:1031180000420521304610f05dfa97f8c232032bc1
:1031280040f0c18097f8bd3283b997f8da32012ba5
:1031380008d0294a4ff4447303fb0423072283f879
:10314800bf22b0e0042287f8bf22ace0224a4ff445
:10315800447303fb0423102283f8bf22a3e01e4b11
:103168004ff4447707fb0437002287f8c322b7f8e7
:10317800822205f2c3252b440093012312040d215a
:10318800304610f027fa97f8c232032b40f08b80b4
:1031980097f8bd32b3b9bb681b6a03a900209847ea
:1031a800039bc3f34323032b03d0102287f8bf22ca
:1031b80079e0094a4ff4447303fb0423042283f89b
:1031c800bf2270e0044a4ff4447303fb0423102227
:1031d80083f8bf2267e000bf000c0020bf4b4ff40c
:1031e800447707fb0437b7f8822205f2c3252b443e
:1031f8000093022312040721304610f0ebf997f8e8
:10320800c232032b4fd197f8bd3243b9bb681b6a52
:1032180003a900209847082387f8bf3243e0af4a44
:103228004ff4447303fb04230e2283f8bf223ae0d1
:10323800002f43d0b8690128a84a4ff4447303fb10
:1032480004239b685b6a0cbf002080b29847a34b9d
:103258004ff4447808fb0438d8f808309b6a4ff4d8
:1032680000709847012388f8c332b969d8f8083044
:103278005b6b7a7f490238699847092388f8bf321f
:103288007a69397f954f05f2c3253d44009501239e
:10329800304610f09ff94ff4447303fb047393f81e
:1032a800c232032b13d08d4b4ff4447202fb04340b
:1032b800012384f80c3305b0bde8f083874a4ff446
:1032c800447303fb04230e2283f8bf22ebe74ff479
:1032d800447303fb0473002283f8c32293f8bd32be
:1032e8003bb94ff4447303fb04730a2283f8bf22eb
:1032f800d9e77a4a4ff4447303fb04230e2283f878
:10330800bf22d0e7754a4ff4447303fb042393f8b4
:103318008f32002bc7d04ff4447303fb0423b3f858
:10332800923223f4fb4323f00f039bb23bb14ff4db
:10333800447303fb04230e2283f8bf22b3e767b16b
:10334800bb69012b654a4ff4447303fb04238cbf0c
:103358000b220c2283f8bf22a5e7604a4ff444737e
:1033680003fb04230e2283f8bf229ce75b4f05f280
:10337800c3253d440095022300220c21304610f05d
:1033880029f94ff4447303fb047393f8c232032bf7
:1033980089d14ff4447303fb047393f8bd323bb9ee
:1033a8004ff4447303fb04730c2283f8bf227ae7bb
:1033b8004a4a4ff4447303fb04230e2283f8bf22c6
:1033c80071e7464b4ff4447707fb0437b7f882227e
:1033d80005f2c3252b440093012312040d21304626
:1033e80010f0f8f897f8c232032b7ff45caf97f827
:1033f800bd326bb9bb681b6a03a900209847039bc1
:1034080013f4807f3ff44faf0d2287f8bf224ae7bd
:10341800324a4ff4447303fb04230e2283f8bf227d
:1034280041e7dff8b88005f2c3254544009500233d
:103438001a460721304610f0cdf84ff4447303fbc9
:10344800048393f8c232032b7ff42daf00233b7221
:103458004ff4447303fb04830f2283f8bf2222e74f
:103468001e4a4ff4447303fb04239b7873b94ff44b
:10347800447505fb0425ab689b6b9847184b18707f
:10348800ff233b720f2385f8bf320ce7134b4ff431
:10349800447808fb0438002288f8c322b8f882224e
:1034a80005f2c3251d440095012312040d21304661
:1034b80010f090f898f8c232032b7ff4f4aeff2393
:1034c8003b720f2288f8bf2298f8bd32002b3ff4d8
:1034d800eaae034b00221a70e5e600bf000c00209c
:1034e800b22f0020b7b17968c8b22e4b4ff444729e
:1034f80002fb0432d2f8b83203eb0013da689142c7
:1035080014d0d6f8ac322bb11a6ac6f8ac22002215
:103518001a621a70244b1b78a3b1224a4ff44473e1
:1035280003fb0423042283f8bf22bce65d68002d58
:10353800e7d097f908009a68f968003018bf0120a9
:10354800a847dee7184b01221a70164a4ff4447355
:1035580003fb0423102283f8bf22a4e600232b6276
:103568002b70d6f8ac528db12b6ac6f8ac322a79da
:10357800d7f8b83203eb0213d3f80490b9f1000f6f
:10358800ecd09a68e9684046c847e7e7054a4ff42f
:10359800447303fb0423002283f8be2283f8bf226e
:0c35a80081e600bf000c0020b22f0020c4
:020000040000fa
:1035b4002de9f04f91b00f210a201df0c3f80390bc
:1035c40010f0010f40f02185039b13f0020f40f02f
:1035d400408511b0bde8f08fd9f8187007f11003d9
:1035e4000793fb680d933b690e9300228df83c20f2
:1035f40006238df83d302b0a43ea0523adf83e300f
:103604000c210da817f072fbc3439bb2b9f822201a
:1036140012f0040f33d02a464146484616f06cfa9d
:103624000490049b002b40f05986404617f058fe46
:1036340098f80cb04fea1b1b4fea8b030693d9f89a
:103644001cb0bbf80220002a00f04b86fe89bb891f
:103654001e44bbf800301e445640b6b2cf4bd3f8dc
:1036640000c0bcf1000f00f03f86d9f828e0cc4b35
:103674001b68059300239a46194610460fe01a4624
:103684002946404617f032fb0490cae7b4f86a2092
:1036940082422fd001331bb2194663452fd2059abb
:1036a40052f82140002cf5d094f86e200b2af1d06a
:1036b40094f86f100129edd8216c09b18e45e9d138
:1036c400002ae3d0b4f86a20b242e3d1dbf8001058
:1036d400a26d9142ded1a16bfa689142dad1012147
:1036e40084f86f10c4f840e0079a20461bf0defd12
:1036f400a24621e0baf1000f08bfa246cae7baf118
:10370400000f7fd0fb68caf8383001218af86f10a7
:10371400caf840e0079a50461bf0c8fdaaf86a6050
:10372400bbf80030aaf85830bbf80230aaf85a3077
:10373400daf80030caf81030d9f8102093890699c5
:103744005b1a938198f80d40d8f80870d8f8046093
:103754009af8373013f0400f57d19af86d306ff361
:1037640000038af86d309af86e30002b68d0012b74
:1037740000f0ac801435069aa5eb020b1ffa8bfb04
:10378400abf1140292b2069214f0010207921abf2e
:10379400abf1130b1ffa8bf2069a059214f0020f89
:1037a40003d0059a013292b20592daf81c50daf885
:1037b40020209542c0f0db80daf81810daf8140003
:1037c400091aa5eb020ba1eb0b0b1ffa8bfbdaf822
:1037d4005020b51a059a002a00f0e680bbf1000fcc
:1037e40000f0d280002dc0f2c9805d45c0f0e180b8
:1037f400059aabeb0202ab4500f3db80954240f344
:10380400d880c1e06ff00e01fbe300238af8713029
:103814009af8363013f0020f9fd11df05bf88346ff
:10382400baf8683005931df07df8059b00fb03f0a2
:103834005c4ba3fb00300beb9010caf824008ce720
:1038440014f0040f2cd114f0100f2ed114f0020f29
:1038540037d00136caf85060404613f003feaaf888
:10386400620050461af0cfff01221221504604f0a4
:103874000bfc02238af86e30baf87220049b1a40bb
:1038840000f03585daf87440002c00f03285daf85f
:103894007830d9f82810baf93400a0470221b0e3ef
:1038a400002150460ef018fee6e7caf84c700022dc
:1038b4000421504604f0e8fb002150460ef00cfeb3
:1038c400dae7002150460ef007fed5e714f0040fa6
:1038d400d2d114f0100f00f00e85daf84c50af423c
:1038e4002ad114f0020fc7d00136caf85060b8f8d4
:1038f4000e30aaf86630aaf85c30404613f0b2fde8
:10390400aaf8620050461af07eff012210215046a8
:1039140004f0bafb03238af86e309af8373013f0b8
:10392400400f13d19af836306ff341038af83630da
:103934004ff4807304939fe7caf84c70012204216a
:10394400504604f0a1fbcaf84c5095e71cf0c2ffa6
:103954000546baf868401cf0e5ff00fb04f3114a81
:10396400a2fb032305eb9313caf82430dae7a2eb96
:10397400050b0bf1ff3b1ffa8bfb28e705990a4661
:10398400691800293ff735af14f0040f7ff474afc2
:1039940001221021504604f077fb6de7c02e002071
:1039a400fc2d0020d34d62101db1002decdb5d45d4
:1039b400eada14f0060f11d114f0100f3ff45cafe3
:1039c400023b072b00f2fe80dfe813f0190024000d
:1039d400240024002400fc002400f90114f0040f46
:1039e40008d09af8373043f002038af837304ff49e
:1039f40000630493002150460ef06efd3ce7daf8b4
:103a04004c3008939f4220d103238af86e304ff440
:103a140080730493daf808c0daf81030bceb0300c2
:103a24001ed4daf84c107a1a121a002a28ddbaf8d1
:103a34006c0000f40170042801d1012a17d000227f
:103a44001021504604f020fb16e7caf84c700122fe
:103a54000421504604f018fb089bcaf84c300be7cd
:103a6400daf80410daf80020891a0844d9e7013199
:103a7400caf84c109af86d2042f002028af86d20c0
:103a8400daf84c200992daf80c100891a3eb010e35
:103a94008b422fd2daf80400daf80010411ab81a6f
:103aa40070440844002838dddaf804200a92daf871
:103ab4000010521a0b9290422cd89af86c1001f014
:103ac400ef016ff345118af86c109af836106ff312
:103ad40045118af83610089a0244caf80c200b994a
:103ae4000b449342c0f0ff800a9b9a42c0f0558475
:103af40000f04fbc0999781a704400280adddaf8fe
:103b040004100a460a91daf80010521a0b929042f5
:103b140040f22084089a93422cd09af86c1011f049
:103b2400100f21d011f0200f18d0099aa2eb0e012a
:103b3400caf84c10089a934207d2daf80430daf83b
:103b440000001b1acb1acaf84c30089bcaf8103074
:103b54009af8363043f080038af836309af86c309d
:103b640043f020038af86c309af86c3043f0100369
:103b74008af86c30daf80c309c4500f0bc80b8f858
:103b84000e30baf866209a4238bfaaf86630daf8de
:103b94004c20b8f80e303b449b1a9bb2baf85c1028
:103ba40031b92bb19af8361041f040018af8361039
:103bb400aaf85c309af86e30042b00f0d780062bfc
:103bc40000f0f58014f0200f7ff456ae9af86e20c2
:103bd400a2f10803dbb2012b7ff64eae062a3ff4b6
:103be4004bae069a002a3dd0002d40f3f380069b8d
:103bf4002b445b4504ddabeb050b1ffa8bf30693fb
:103c040098f80c301b0908eb83030c93daf81c10aa
:103c1400daf81830069a2a440a44934280f06981fb
:103c24005a1a0132521b00f156811ffa82f80124fc
:103c3400009443460ca802462944484616f042fc28
:103c44008346069aa2eb080300949bb20caadaf806
:103c54001410484616f036fc584480b2069b834242
:103c640000f05081059bcbb19af86e30033bdbb278
:103c7400022b84bfdaf81c30caf820309af83630a8
:103c840013f0100f40f06d819af8363043f01003b2
:103c94008af8363013f0080f00f06981079b002b77
:103ca4003ff4eaaddaf850300133059a32449342d6
:103cb4007ff4e2adcaf85030049b43f4806293b2bf
:103cc40004939af8373043f004038af837309af8ab
:103cd4006e30023b032b00f27881dfe813f05d01c4
:103ce40066016f018601d31a09990b44caf84c3056
:103cf400caf810204ae39af8373013f0010f1dd1a7
:103d040013f0400f06d19af836306ff341038af866
:103d1400363034e71cf0defd0890baf868300993b9
:103d24001cf000fe099b00fb03f34ff47a72b3fb13
:103d3400f2f3089a1344caf82430e4e7daf84c3072
:103d44009f427ff41caf9af86c3013f0040f3ff4d9
:103d540016af9af836306ff341038af836309af882
:103d640037306ff300038af8373008e7974204d0fe
:103d740014f0200f3ff435af7ee59af86c3013f061
:103d8400040ff5d01cf0a6fd08901cf0cbfd41f209
:103d9400883303fb00f34ff47a72b3fbf2f3089a0f
:103da4001344caf8303005238af86e30e0e79742ae
:103db4007ff462ad002150460ef08efb5ce5daf82c
:103dc4004c3001339f427ff457ad002150460ef032
:103dd40083fb51e598f80c301b09c5eb830343447e
:103de4000c932a4493b29b4528bf9b46daf81c10d7
:103df400daf8183001eb0b0293425cd25b1a03f140
:103e040001081ffa88f5012400942b460caa4846a1
:103e140016f058fb0690abeb050300949bb20caa7a
:103e2400daf81410484616f04dfb069b034498b28a
:103e3400abeb0803daf81420134458457ff412afaf
:103e4400daf850105944caf85010caf81c309af8dd
:103e54006e20033ad2b2022a04d8049a42f40072c1
:103e640092b20492daf85420b2f1ff3f3ff4faae72
:103e7400a2eb0b0bcaf854b0baf8602012eb0b0299
:103e840024d4bbf1000f3ff7edae1144caf8501033
:103e94001344caf81c30daf81820934206d9daf829
:103ea4001410521ad2431344caf81c304ff0ff3393
:103eb400caf85430d6e6012300935b460caa484660
:103ec40016f000fbdaf81c305b44b6e74ff0ff3322
:103ed400caf85430c6e6681edaf814209b1ac01ad1
:103ee40001230093069b0caa0144484616f0eafa03
:103ef400b4e601230093069b0caa2944484616f015
:103f0400e1faabe6daf85430b3f1ff3f13d09d4247
:103f140017d2069a5119baf86020d018814204d8f1
:103f24008b4202d8431b9bb20693069baaf86030cf
:103f3400caf8545096e6caf85450069baaf8603062
:103f440090e6baf860201a440698411991427ff627
:103f540089ae95423ff686aeeb1a1844aaf8600083
:103f640080e601221021504604f08ef896e6dbb27a
:103f740043f008038af836301cf0acfc04461cf00d
:103f8400d1fc642303fb00f34ff47a72b3fbf2f326
:103f94001c44caf82c4081e609238af86e300122b9
:103fa4001121504604f070f866e408238af86e3054
:103fb4009af86d3013f0010f07d05de4daf84c3055
:103fc4009f4208d006238af86e3001221021504601
:103fd40004f05af850e400221021504604f054f83a
:103fe400002150460ef078fa46e400221021504693
:103ff40004f04af8002150460ef06efa3ce46ff0eb
:104004000d010a2248461af0fffa0a201df0b2fdfb
:10401400814600283ff4d8aab9f82050132deed9d0
:10402400d9f81c8098f80c301b09042b0bd9b5eb7c
:10403400830f0bdbb9f8223013f4007f3ff4ccaad2
:104044006ff00e01dde76ff00d01dae76ff00d019f
:10405400d7e7bd4b1b68002b3ff4bbaa00252b46ba
:10406400dff8e892dff8e8a2dff8dc82dee01cf09b
:1040740031fca36ac01a0028a8bf1026ede01cf08a
:1040840029fce36ac01a0028c0f2ed8094f86e306f
:10409400052b00f09981102687f001023146204655
:1040a40003f0f2ffe7e01cf015fc236bc01a0028b4
:1040b400c0f2de8001221421204603f0e5ff002136
:1040c40020460ef009faa9e094f8366006f00106dd
:1040d4000121204613f0b0fe94f8363043f001037a
:1040e40084f836304ff480520021204619f096f8b7
:1040f400002e40f0938094f836306ff3000384f878
:1041040036300a2384f86e3088e01cf0e3fb636adf
:10411400c01a0028c0f2828094f86e104b1e082b3f
:104124007ad8dfe803f0054256617969797971003c
:1041340094f87030032b28d80221002694f87030ac
:10414400013384f87030a36c5b00a3642069e268d7
:10415400831a9bb2904204d260682768c01b034450
:104164009bb2e06cc01ae064b4f85c000344a4f8a9
:104174005c3022610022204603f086ff002e4dd0e1
:10418400002120460ef0a8f948e0042384f870309a
:104194001cf0c8fb4ff47a7303fb00f3aafb032360
:1041a4009b091b01a3640221c7e794f87030022b1a
:1041b40040f2c08094f8366006f001031e46002bde
:1041c40018bf1421002fb9d10122204603f05cff4f
:1041d400d4e794f87030042b40f2ae80042384f8c2
:1041e4006e3011210026ede794f87030042b40f274
:1041f400a58014210126e5e794f87030042b40f2e1
:104204009f8014210126dde794f87030042b40f2de
:10421400998014210126d5e7002e5cd101352db2f9
:104224002b46d8f800209542bff4d3a9d9f8002032
:1042340052f82340002cf1d094f86e300b2bedd0c3
:1042440094f8363013f0c0061dbf1f46df09102650
:10425400002713f0040f7ff40aaf94f8363013f0fc
:10426400080f7ff40caf94f86e30052b3ff41bafae
:10427400002e7ff411af94f8363013f0020f7ff460
:1042840044af94f8373013f0400fc7d094f86e3031
:10429400032bc3d11cf01efb636ac01a0028bddbcc
:1042a40094f8712094f87c309a423ff40daf0222c6
:1042b4001021204603f0e8fe1cf00cfb0746b4f87e
:1042c40068601cf02ffb00fb06f0aafb003007eb34
:1042d40090106062a2e73146002673e76ff009018f
:1042e4008fe66ff00e018ce66ff00e0189e6022175
:1042f40087e6022185e614f0020f3ff4bdaa0136d9
:10430400caf85060b8f80e30aaf86630aaf85c30e3
:10431400404613f0a7f8aaf8620050461af073fa60
:1043240001221221504603f0affe02238af86e30b8
:10433400fff7a2ba122100e71021fee61121fce6e4
:104344001021fae61121f8e6c02e0020fc2d0020f1
:10435400d34d62109af86c1001f0ef016ff3451120
:104364008af86c109af836106ff345118af83610f3
:10437400089a0244caf80c209342bff4b5abd31a8e
:1043840009990b44caf84c30caf810200a9b93428e
:104394000cd80b9bd21acaf80c20daf810300a9aff
:1043a4009a4203d80b9a9b1acaf810309af86e30c6
:1043b400032b02d0082b7ff4ddab049b43f00402f3
:1043c40093b20493fff7d6bb1cf084fa236bc01a94
:0c43d4000028bff66fae10265ee600bfaa
:020000040000fa
:1043e0002de9f04f2ded028b9bb00f2120201cf00a
:1043f000abf9002800f08886824b1b68002b40f345
:104400008386814c0026814fdff810829fed808ae1
:1044100008f29c730593a3e3d4f8c4305d6894f864
:10442000d12032b3227c012a45d0022a65d1b4f9c9
:104430003830b3f1ff3f27d00023764a4ff40071a4
:10444000b4f938001bf05cfed4f8bc200221b4f9aa
:10445000380010f02df938b9d4f8c4301b681b6847
:1044600008f2ec61284698470621204618f05efdc8
:104470006fe31b681b6808f2a46128469847012176
:10448000204618f053fd64e304f18002618a0120a4
:1044900013f07efd2087b0f1ff3fcdd1d4f8c430ba
:1044a0001b681b6808f5d9612846984701212046fa
:1044b00018f03cfd4de304f18002618a01201ef0fa
:1044c000fbf8a087b0f1ff3f0ad00023524a4ff417
:1044d00080711bf0c5fe0321204618f027fd38e34c
:1044e000d4f8c4301b681b6808f21471284698473a
:1044f0000121204618f01afd2be31b681b6808f504
:10450000e761284698470121204618f00ffd20e377
:10451000d4f8c430d3f804b03b4be31adb1003eb00
:10452000c30203eb4203c3eb432303eb8343c3f117
:10453000000a86e0d4f8c4301b681b6808f5ea61fd
:10454000584698470421204618f0f0fc01e3b4f9de
:104550003c001cf092fcfce20133c4f89430284685
:104560001cf00afa02460b46d4e9080109f028fdbe
:10457000c4e90801b9f1000f1adba36ae26a511c11
:104580008b4230d0934222dc616b01f10101616307
:104590002bd022e0d4f8c4301b685b6808f5ee61cc
:1045a00058469847236b013ba26a1344236383e078
:1045b000c9f10003a3621cf08ff9c4f88c0000233a
:1045c00084f8cc300421204618f0b0fcd5e75b1a03
:1045d000226b13442363a36ae3620c3dadb285b33f
:1045e0004ff0340925e0934206d1d4f8c4301b685b
:1045f0001b68059958469847a36ae26a9342ecdd26
:10460000eae700bf682f002058240020282c002053
:1046100000007a44071e0200f11d02001451000040
:104620004a463946b4f93c0011f047f9343dadb281
:104630003db1332df4d82a463946b4f93c0011f087
:104640003cf9b4f93c001cf0cff805460b2840f2c9
:1046500082800c223946b4f93c0011f02ef90c2866
:104660007ff468af3b684fea136949ea03691a02ad
:1046700002f47f0249ea02091b0a03f47f4349ea74
:104680000309c4f82890d4f89430002b7ff464af69
:10469000b9f1000ffff65baf0123c4f89430d4f8f2
:1046a000c4301b685b68524608f2d471584698477c
:1046b000a26a002a7ff46eafa36ae36206a9b4f986
:1046c0003c0017f03df9b4f93c001df01ffd1cf053
:1046d00095fe079dd4f8c4301b68628a0292020ed0
:1046e0000192c0f307420092d3f80490c0f307236d
:1046f000c2b208f5b1615846c847d4f8c4301b6847
:10470000bdf85c2002922a0e0192c5f30742009286
:10471000d3f80490c5f30723eab208f2bc51584617
:10472000c8476564bdf85c30a4f864301cf0d4f868
:10473000c4f88800c4f8a800a36ac4f89c30d4f870
:104740009430c4f89830236bc4f8a030b4f93c001e
:104750001cf093fb75e7d4f894304bb994f8cf3044
:10476000012b40f0f6810421204618f0dffbf0e138
:104770001cf0b2f8d4f8a830c31a22689342edd9dd
:10478000d4f89420d4f898309a4213d1d4f8c43095
:104790001b681b6808f2bc71584698471cf09cf8cf
:1047a000c4f88c00002384f8cc300421204618f093
:1047b000bdfbd3e70021204609f0acf9cee7b4f900
:1047c0003c001cf011f838b994f8cf304bb10921f6
:1047d000204618f0abfbbce1b4f93c001cf04dfbeb
:1047e000b7e10521204618f0a1fbb2e194f8cd30e5
:1047f000002b00f0b580b4f93c001bf0f5ff002859
:1048000040f0b68094f8cc305a1c84f8cc200a2ba7
:1048100000f2b3808021b4f93c001df0a1ff002814
:1048200000f09781e36a5b421a0e42ea03621902c2
:1048300001f47f010a431b0a03f47f4313433b60e7
:1048400000257d60bd608023fb603d61d4e90801e7
:104850001cf0bcfa020e42ea0062030203f47f037a
:104860001a43030a03f47f4313437b611cf05cf893
:10487000d4f88c10d4f88830c91ab1fbf0f31a0eb2
:1048800042ea03624fea032c0cf47f0c42ea0c026a
:104890004fea132c0cf47f4c42ea0c02ba6100fb85
:1048a000131307ee103ab8ee477a27ee087a07eeb0
:1048b000900af8ee676ac7ee267a67ee887afcee11
:1048c000e77a17ee903a1a0e42ea0362190201f4ef
:1048d0007f010a431b0a03f47f431343fb61236bed
:1048e0001a0e42ea0362190201f47f010a431b0a0d
:1048f00003f47f4313433b62636b1a0e42ea036285
:10490000190201f47f010a431b0a03f47f43134396
:104910007b62e36a1a0e42ea0362190201f47f0124
:104920000a431b0a03f47f431343bb62fd623d63ea
:1049300034223946b4f93c0018f0f7ff4ff04c0927
:104940004a46294606a81df059fc4a4606a9b4f96c
:104950003c0018f0eaffb4f93c0009f09dfff8e0d4
:104960000221204609f0d6f8012384f8cd3042e731
:10497000b4f93c001cf081faebe00921204618f064
:10498000d5fae6e094f8cf30012b24d0b4f9380002
:104990001cf02cf8002800f0dc8006a9b4f93800df
:1049a00015f0a0fc04f1400c06ad0fcdace80f00f3
:1049b0000fcdace80f000fcdace80f0095e8030079
:1049c0008ce803000721204618f0b0fab4f938004b
:1049d0001bf037fdbde00921204618f0a7fab8e02a
:1049e000d4f8c430d3f80490b4f938001df01efb9d
:1049f0000546002866d0a36a002b4cd1c74be31aaa
:104a0000db1003ebc30203eb4203c3eb432303ebd3
:104a10008343d4f8c4201268d2f804a05a4208f2a2
:104a2000d4714846d0471bf057ffc4f88800c4f83b
:104a3000a800a36ac4f89c30b4f938001df056fbf6
:104a40001cf0dcfcd4f8c4301b68628a0292020eaf
:104a50000192c0f307420092d3f804a0c0f30723e9
:104a6000c2b208f5b1614846d047d4f8c4301b68db
:104a7000b4f86420029294f84720019294f84620fa
:104a80000092d3f804a094f8453094f8442008f23a
:104a9000bc514846d047a36a0133a362d4f894209e
:104aa0000132c4f89420e36228461bf065ff0246f9
:104ab0000b46d4e9080109f083fac4e908014ff074
:104ac00034091be0b4f938001bf0bbfc20b9b4f981
:104ad00038001df040f9c8b11bf0fefec4f88c0090
:104ae0000821204618f022fa33e04a463946b4f944
:104af000380011f017fb343dadb23db1332df4d881
:104b00002a463946b4f9380011f00cfba36a63b9a0
:104b100094f8cf30012b1cd10821204618f006fa5a
:104b20001bf0dafec4f88c0013e01bf0d5fed4f8bd
:104b3000a830c31a22689342ead90021204608f01f
:104b4000e9ffe5e794f8cd30c3b30921204618f01a
:104b5000edf90136d834724b1b68b34240f3d4826e
:104b600094f8ce30012bf4d0023b102b00f2b1822e
:104b700001a252f823f000bf1944000011450000c3
:104b8000bf470000ed47000085490000e1490000f3
:104b9000454b0000cd4b0000714c00008f4c0000d5
:104ba000534e0000374f0000bf4f0000ad500000d3
:104bb000634d00001f500000c3500000022120463a
:104bc00008f0a8ff012384f8cd30bee7d4f8c43044
:104bd0005d68237c012b2cd0022b2fd04f4be31a86
:104be000db1003ebc30203eb4203c3eb432303ebf2
:104bf0008343c3f10009d4f8c4301b685b684a469c
:104c000008f5006128469847204618f0f7fd94f80b
:104c1000d130012b1ad0d4f8c4301b685b684a46e7
:104c200008f66401284698470121204618f07ef9cd
:104c30008fe7b4f93c0018f0e3ffcfe7b4f9380090
:104c400019f0f6fe4ff6ff732387c7e794f8cf30cd
:104c5000002be0d1d4f8c4301b685b684a4608f5e5
:104c60000361284698470221204618f05ff970e753
:104c700004f14401d4f8c80019f049f90b21204689
:104c800018f054f91bf028fec4f8ac0061e7d4f822
:104c9000c4305d6894f8cf20012a11d094f84430d4
:104ca00003f0f003e02b16d1237c012b54d0237c9e
:104cb000022b7ff44eaf0c21204618f037f948e75d
:104cc0001b681b6808f68401284698470121204686
:104cd00018f02cf93de704f1780204f14401d4f80e
:104ce000c80014f011f9e8b1d4f8c4301b6894f886
:104cf0007d20039294f87c20029294f87b2001920c
:104d000094f87a200092d3f8049094f8793094f8cb
:104d1000782008f6e4012846c847c5e75824002053
:104d2000682f00201bf0d8fdd4f8ac30a0eb0309ad
:104d30001bf0fafd00eb800081457ff60aafd4f846
:104d4000c4301b681b6808f6a401284698471bf06e
:104d5000c3fdc4f8ac00fce61021204618f0e6f8cc
:104d6000a5e7d4f8c4305d6804f14402618a0120eb
:104d70001df0a7fca087b0f1ff3f5dd00023c94a1a
:104d80004ff480711bf06cfae2680521b4f93c0025
:104d900009f06efc38b9d4f8c4301b681b6808f5fc
:104da00011612846984702220621b4f93c0009f017
:104db0005ffc38b9d4f8c4301b681b6808f638119a
:104dc00028469847d4f8c810b4f93c0018f084f885
:104dd00006a9b4f93c0016f0b3fdbdf85e30a4f8a6
:104de0007e30d4f8c4301b681b6808f5677128460c
:104df0009847d4f8c4301b68628a029294f847201e
:104e0000019294f846200092d3f8049094f845302b
:104e100094f8442008f516612846c8471121204619
:104e200018f084f81bf058fdc4f88800d4f88430da
:104e30000344c4f890308ce6d4f8c4301b681b6877
:104e400008f21471284698470121204618f06ef8a0
:104e50007fe6d4f8c4305d680022618a01201cf02e
:104e600038fd6087b0f1ff3f4fd000238e4a4ff4ea
:104e700000711bf045f9d4f88030002b52d104f1b9
:104e8000440300220121b4f93a0018f0f2f94ff47a
:104e90008063a4f87e30d4f8c4301b681b6808f522
:104ea000677128469847d4f8c4301b68628a02921a
:104eb00094f84720019294f846200092d3f8049089
:104ec00094f8453094f8442008f698112846c847cd
:104ed0000d21204618f02af8d4f8b8200321b4f99f
:104ee0003a000ff0e5fb38b9d4f8c4301b681b68f2
:104ef00008f5116128469847b4f93a001af0c3ff43
:104f00001bf0eafcc4f8ac0023e6d4f8c4301b68fc
:104f10001b6808f5d961284698470121204618f0fa
:104f200005f816e604f18003628a0121b4f93a001b
:104f300012f003f8a3e794f8cf30012b1ad0d4f87d
:104f4000c430d3f80490b4f93a001bf04ffdb0b16f
:104f5000b4f93a001bf075fa1bf0befcc4f88800e7
:104f6000d4f884300344c4f890300e21204617f062
:104f7000ddffeee50f21204617f0d8ffe9e51bf035
:104f8000abfcd4f8ac50451b1bf0cefc00eb800012
:104f900085427ff6deadb4f93a0019f049fd4ff6cf
:104fa000ff736387d4f8c4301b681b6808f51d6164
:104fb000484698470f21204617f0b8ffc9e520461c
:104fc00005f056fd01280bd002287ff4c2ad0f2159
:104fd000204617f0abff1bf07ffcc4f88c00b8e54f
:104fe0003422542138461df009f9b4f8b03073b1b9
:104ff000332b94bf1d4634255b1ba4f8b0302a46e2
:105000003946b4f93a000cf09dfd8542edd0b4f973
:105010003a001bf0fefc20460af03afd99e5227d9d
:105020000b21b4f93c0009f023fb204605f020fddc
:1050300001280bd002287ff48cad1221204617f0f6
:1050400075ff1bf049fcc4f88c0082e53422552121
:1050500038461df0d3f8b4f8b050bdb14ff0000998
:105060004ff0340a01e0002d41d0332d36d9343dc4
:10507000adb209f134091ffa89f952463946b4f93b
:105080003c0018f052fc3428edd030e0a9462ee068
:10509000b4f8b030a3eb0909a4f8b09020460af0a8
:1050a000f7fc56e5f11d0200071e0200204615f030
:1050b000e5fbb4f93a0019f0bbfc4ff6ff736387c8
:1050c00047e5204615f0dafbb4f93c0018f098fdee
:1050d0003fe50121204617f029ff3ae5a9441ffad0
:1050e00089f92a463946b4f93c0018f01efcb4f997
:1050f0003c0009f0d1fb0028cad100221146b4f9c6
:105100003c0019f0c0fb24e51bb0bdec028bbde8f0
:04511000f08f00bf5d
:020000040000fa
:1051140055736167653a20697065726673203c2d2a
:1051240074782073697a653e203c2d727820736907
:105134007a653e203c2d6920696e6465783e0d0acf
:10514400000000002d7478002d7278002d69000095
:105154002d2d696e646578006970657266693a2000
:10516400556e6b6e6f776e20706172616d657465dc
:10517400720d0a000d0a69706572663a20496e76ee
:10518400616c69642073657373696f6e206e756ded
:105194006265722e204d696e3a20302c204d617864
:1051a4003a2025640d0a00006970657266733a201e
:1051b40030203c2073697a65203c203635353336ff
:1051c4000d0a00006970657266733a204f4b2c20fb
:1051d40073657420696e7374616e63652025642041
:1051e40072782073697a6520746f2025640d0a0033
:1051f4006970657266733a204f4b2c207365742076
:10520400696e7374616e63652025642074782073fd
:10521400697a6520746f2025640d0a0069706572cf
:10522400666b3a205573696e6720696e64657820f1
:10523400300d0a000d0a6970657266207365737318
:10524400696f6e3a206e6f74207374617274656452
:10525400210d0a000d0a69706572663a207472792c
:10526400696e6720746f2073746f70206970657243
:105274006620696e7374616e63652025642e2e2e1c
:105284000d0a000055736167653a2069706572669e
:105294006b203c2d6920696e6465783e0d0a000020
:1052a4002d6100006970657266693a207573652026
:1052b400612076616c696420495020616464726580
:1052c4007373210d0a00000055736167653a206904
:1052d4007065726669202d61206164647265737300
:1052e400203c2d6920696e6465783e0d0a0000003b
:1052f4000d0a6970657266693a2063616e6e6f7437
:10530400206368616e676520746865206970206138
:10531400646472657373207768696c652073657360
:1053240073696f6e3a2025642072756e6e696e67bc
:10533400210d0a006970657266693a204f4b2c2072
:1053440073657420746865204950206164647265d3
:10535400737320746f20696e7374616e63653a2091
:1053640025640d0a000000002d7300002d2d7365c7
:1053740072766572000000002d7500002d2d756495
:10538400700000002d6200002d2d62616e6477694b
:10539400647468004d0000004b0000000a47697601
:1053a400656e20696e2042573a20256c752b256c5a
:1053b400753d256c750000002d7800002d2d786d4d
:1053c40069747261746500002d6300002d2d636c97
:1053d40069656e74000000002d7400002d2d746941
:1053e4006d6500002d6e00002d2d6e756d000000a2
:1053f4002d5300002d2d746f730000000a47697649
:10540400656e20544f532076616c75652069732056
:1054140025642c206d547970654f665365727669e6
:1054240063653a25640000002d4d00002d2d6d7339
:10543400730000002d2d696e74657276616c000036
:105444002d7000002d2d706f727400002d6c000003
:105454002d2d6c656e00000069706572663a2054eb
:105464006865206d696e696d756d2064617461672e
:1054740072616d2073697a652069732025640d0a51
:105484000000000069706572663a205573696e67a2
:10549400207468652064656661756c7420696e7437
:1054a400657266616365210d0a0000002d2d2d2da6
:1054b4002d2d2d2d2d2d2d2d2d2d2d2d2d2d2d2d18
:1054c4002d2d2d2d2d2d2d2d2d2d2d2d2d2d2d2d08
:1054d4002d2d2d2d2d2d2d2d2d2d2d2d2d2d2d2df8
:1054e4002d2d2d2d2d0d0a0069706572663a2053fd
:1054f4006572766572206c697374656e696e672077
:105504006f6e2000554450005443500020706f7259
:10551400742025640d0a00000d0a69706572663aec
:1055240020416c6c20696e7374616e6365732062d4
:105534007573792e205265747279206c617465726a
:10554400210d0a000d0a69706572663a2053746170
:105554007274696e672073657373696f6e20696e08
:105564007374616e63652025640d0a002020202079
:105574002d205b25326c752d2025326c75207365ca
:10558400635d2025336c752f2025336c7520282509
:10559400326c752525292020202025346c75204b5c
:1055a4006270730d0a000000202020202d205b3043
:1055b4002e302d20256c752e256c75207365635d4a
:1055c4002025336c752f2025336c75202825326ceb
:1055d400752525292020202025346c75204b6270e8
:1055e400730d0a0069706572663a20696e7374619e
:1055f4006e636520256420636f6d706c65746564eb
:10560400202e2e2e00000000697065726620696edf
:105614007374616e63652025643a20547820646f46
:105624006e652e20536f636b657420636c6f7365b6
:10563400642e0d0a0000000069706572663a2069e4
:105644006e7374616e636520256420636f6d706c86
:10565400657465642e0d0a0069706572663a20539c
:105664006f636b65742073656e64206661696c6535
:10567400640d0a000d0a69706572663a20696e73da
:1056840074616e636520256420737461727465644b
:10569400202e2e2e0d0a0000202020202d204c6fbd
:1056a40063616c202025752e25752e25752e257594
:1056b40020706f727420257520636f6e6e6563743d
:1056c400656420776974680d0a000000202020209a
:1056d4002d2052656d6f74652025752e25752e2538
:1056e400752e257520706f72742025750d0a0000c3
:1056f400202020202d20546172676574207261740b
:1057040065203d20256c64206270732c20706572c6
:10571400696f64203d20256c64206d730d0a0000c0
:10572400202020202d2d2d2d2d2d2d2d2d2d2d2dd9
:105734002d2d2d2d2d2d2d2d2d2d2d2d2d2d2d2d95
:105744002d2d2d2d2d2d2d2d2d2d2d2d2d0d0a00f5
:105754000d0a69706572663a205761726e696e67e8
:105764002c205443502073657276657220646973eb
:10577400636f6e6e656374206465746563746564d9
:105784000d0a000069706572663a204661696c65ad
:105794006420746f206765742025642062797465c1
:1057a4007320736f636b6574205458207370616346
:1057b400650d0a0069706572663a20556e737570de
:1057c400706f7274656420436f6e66696775726189
:1057d40074696f6e0d0a000069706572663a204341
:1057e40072656174652054435020736f636b6574f4
:1057f400206661696c65640d0a0000006970657259
:10580400663a20536574206f66205258206275668c
:105814006665722073697a65206661696c65640dda
:105824000a00000069706572663a2043726561740b
:10583400652055445020736f636b657420666169fd
:105844006c65640d0a00000069706572663a205048
:10585400726f746f636f6c206572726f720d0a00e1
:1058640069706572663a205544502047657420413a
:1058740072726179204661696c65640d0a000000ea
:1058840069706572663a202d2046697273742070bf
:105894006b74206964203d20256c64202873686f34
:1058a400756c642062652030290d0a006970657288
:1058b400663a2052656376206475706c696361741e
:1058c400656420706b740d0a0000000069706572d5
:1058d400663a2052782074696d6564206f75740d82
:1058e4000a0000000d0a69706572663a20696e73d9
:1058f40074616e63652025642073657373696f6ecc
:105904002073746172746564202e2e2e0d0a0000bb
:105914000d0a697065726620696e7374616e6365e1
:105924002025643a20527820646f6e652e20536fd0
:10593400636b657420636c6f7365642e0d0a0000dd
:10594400697065726620696e7374616e6365202583
:10595400643a20526561647920666f7220746865c8
:10596400206e6578742073657373696f6e2e0d0aeb
:1059740000000000697065726620696e7374616e60
:1059840063652025643a20636f6d706c657465648b
:105994002e0d0a0069706572663a20636c69656e43
:1059a400742073657373696f6e20636c6f736564c1
:1059b4002e0d0a0069706572663a204152502075b6
:1059c4006e61626c6520746f207265736f6c7665ae
:1059d40020746865204d414320616464726573736b
:1059e400206f662072656d6f746520736964652e1f
:1059f4000d0a0000202020202d2052656d6f746553
:105a04004e6f6465204d41433a2025782025782047
:105a140025782025782025782025780d0a00000097
:105a240069706572663a20536574206f6620545815
:105a3400206275666665722073697a65206661699d
:105a44006c65640d0a00000069706572663a205343
:105a54006574206f662054582071756575696e678a
:105a6400206c696d6974206661696c65640d0a0057
:105a740069706572663a20436c69656e7420636f61
:105a84006e6e656374696e6720746f2025752e25ac
:105a9400752e25752e25752c2055445020706f7257
